:020000040800F2
:100000000000022069250008792300087B230008EE
:100010007D2300087F2300088123000800000000E2
:100020000000000000000000000000008323000822
:1000300085230008000000008723000889230008AA
:10004000B9250008B9250008B9250008B925000818
:10005000B9250008B925000895230008B92500082E
:10006000B9250008B9250008B9250008B9250008F8
:10007000B9250008B9250008B9250008B9250008E8
:10008000B9250008B9250008B925000800000000BE
:10009000000000000000000000000000B92500087A
:1000A000B9250008B9250008B9250008B9250008B8
:1000B000B9250008B9250008A1230008B9250008C2
:1000C000B9250008B9250008B9250008B925000898
:1000D000B9250008B9250008B9250008000000006E
:1000E000B9250008B9250008B9250008000000005E
:1000F000000000000000000000000000B92500081A
:1001000000000000B9250008B9250008B92500083D
:1001100000000000000000000000000000000000DF
:10012000B9250008B9250008B9250008B925000837
:10013000B9250008000000000000000000000000D9
:10014000000000000000000000000000B9250008C9
:10015000B9250008B9250008B9250008B925000807
:10016000B9250008B92500080000000000000000C3
:10017000000000000000000000000000000000007F
:1001800000000000B9250008000000000000000089
:08019000B9250008B92500089B
:1001980010B5054C237833B9044B13B10448AFF3B9
:1001A80000800123237010BD2400002000000000FF
:1001B8000426000808B5034B1BB103490348AFF3F5
:1001C800008008BD00000000280000200426000868
:1001D80053B94AB9002908BF00281CBF4FF0FF31A6
:1001E8004FF0FF3000F072B9ADF1080C6DE904CEA4
:1001F80000F006F8DDF804E0DDE9022304B07047FA
:100208002DE9F047089E04468846002B4BD18A42C8
:10021800154667D9B2FA82F24AB1C2F1200701FA4B
:1002280002F320FA07F7954047EA030894404FEA9B
:10023800154E230CB8FBFEF71FFA85FC0EFB17883A
:1002480043EA084307FB0CF1994209D9EB1807F177
:10025800FF3080F01B81994240F21881023F2B4405
:100268005B1AA4B2B3FBFEF00EFB103344EA03445E
:1002780000FB0CFCA44509D92C1900F1FF3380F0D0
:100288000781A44540F2048102382C4440EA074023
:10029800A4EB0C0400271EB1D4400023C6E9004398
:1002A8003946BDE8F0878B4209D9002E00F0EB8073
:1002B8000027C6E9000138463946BDE8F087B3FA99
:1002C80083F7002F47D18B4202D3824200F2FA8093
:1002D800841A61EB030301209846002EE0D0C6E99A
:1002E8000048DDE702B9FFDEB2FA82F2002A40F0E8
:1002F8008F80491B4FEA154E1FFA85F80127B1FB7D
:10030800FEFC230C0EFB1C1143EA014308FB0CF115
:10031800994207D9EB180CF1FF3002D2994200F24A
:10032800CD808446591AA3B2B1FBFEF00EFB10141F
:1003380043EA044408FB00F8A04507D92C1900F14A
:10034800FF3302D2A04500F2B6801846A4EB080499
:1003580040EA0C409FE7C7F1200CBB4022FA0CFE94
:100368004EEA030E01FA07F420FA0CF521FA0CF311
:100378004FEA1E482543B3FBF8F92C0C08FB193348
:100388001FFA8EFA44EA034309FB0AF49C4202FA74
:1003980007F200FA07F10BD91EEB030309F1FF304E
:1003A80080F087809C4240F28480A9F1020973445E
:1003B8001B1BADB2B3FBF8F008FB103345EA03444E
:1003C80000FB0AFAA24508D91EEB040400F1FF332A
:1003D8006BD2A24569D90238744440EA0940A0FBAF
:1003E8000289A4EB0A044C45C2464B4654D351D06B
:1003F800002E69D0B1EB0A0564EB030404FA0CFC87
:10040800FD40FC404CEA0505C6E90054002747E7D3
:10041800C2F1200320FA03F7954001FA02F021FA0D
:1004280003F34FEA154E3843010CB3FBFEF71FFAEE
:1004380085F80EFB173341EA034107FB08F38B42AB
:1004480004FA02F407D9691807F1FF3C2FD28B424E
:100458002DD9023F2944CB1A81B2B3FBFEF00EFB23
:10046800103341EA034100FB08F38B4207D96918AE
:1004780000F1FF3C17D28B4215D902382944C91A1A
:1004880040EA07473BE73746304609E70746E7E6CD
:100498001846FBE64145ABD2B8EB020A69EB0E02FF
:1004A80001381346A4E76046E9E7184695E767462A
:1004B800D1E781467CE702382C4447E7ACF1020CCF
:1004C8002B442FE7384608E73746E9E6704700BF70
:1004D80010B504460E4B18784FF47A73B3FBF0F35B
:1004E8000C4A1068B0FBF3F000F0D0F868B90F2C94
:1004F80001D901200AE0002221464FF0FF3000F028
:1005080069F8034B5C60002000E0012010BD00BFCB
:10051800000000202000002008B50B4B1A6842F4A8
:1005280000721A601A6842F480621A601A6842F40B
:1005380080721A60032000F02FF80020FFF7C8FF30
:1005480001F0CCFE002008BD003C0240034A1168BF
:10055800034B1B780B441360704700BF4800002012
:1005680000000020014B1868704700BF48000020B9
:1005780038B50446FFF7F6FF0546B4F1FF3F02D051
:10058800044B1B781C44FFF7EDFF401BA042FAD335
:1005980038BD00BF0000002010B50446C31E042B60
:1005A8000FD80A4AD36823F4E0631B041B0C240207
:1005B80004F4E064234343F0BF6343F40033D3609F
:1005C80010BDA221024801F087FEEAE700ED00E035
:1005D8003426000870B505460C4616460F2A25D85D
:1005E8000F2C28D81B4BDB68C3F30223C3F1070287
:1005F800042A28BF0422191D062921D9033B4FF0DC
:10060800FF3101FA02F224EA02049C4001FA03F3E2
:1006180026EA03063443002D14DB2401E4B205F175
:10062800604505F5614585F8004370BDBA210A4863
:1006380001F052FED4E7BB21074801F04DFED1E797
:100648000023DCE705F00F052401E4B2034B5C55F9
:10065800EBE700BF00ED00E03426000814ED00E0F1
:1006680010B5041E08DB04F01F026409012393403F
:10067800044A42F8243010BDCE21034801F02CFE74
:10068800F1E700BF00E100E0342600080138B0F1CE
:10069800807F0AD2064B5860064AF02182F8231060
:1006A8000020986007221A6070470120704700BF39
:1006B80010E000E000ED00E010B50446042800D08A
:1006C80038B9042C0BD0094A136823F004031360CB
:1006D80010BD40F2D911064801F0FEFDF1E7034ACA
:1006E800136843F004031360F2E700BF10E000E072
:1006F80034260008704708B5FFF7FCFF08BD000066
:100708002DE9F04782B080460E46A44B984217D098
:1007180003F58063984213D003F5806398420FD0A5
:1007280003F5806398420BD003F58063984207D0A5
:1007380003F54063984203D0C321994801F0CCFDEA
:1007480033689AB212B11B0C1B041BB1C421944824
:1007580001F0C2FD7368012B1ED9112B1CD0022B8E
:100768001AD0122B18D08F4A934215D002F5801256
:10077800934211D002F5801293420DD0A2F5F812DF
:10078800934209D002F58012934205D002F58012F7
:10079800934201D0032B04D1B368022B06D800245E
:1007A80045E0C5217E4801F097FDF5E7C6217C4864
:1007B80001F092FDF3E7EA21794801F08DFD90E020
:1007C800042300E000238B4003430232764941F8BA
:1007D8002230764B1A68FB4303EA0201706810F472
:1007E800803F01D047EA0201704A1160526803EA6B
:1007F8000201706810F4003F01D047EA02016B4A19
:100808005160926803EA0201706810F4801F01D0F9
:1008180047EA0201654A9160D2681340716811F491
:10082800001F01D047EA0203604AD36001340F2C4D
:1008380000F2B0800125A54037682F40BD42F5D1B0
:100848007368022B01D0122B2BD13369CBB1092B42
:1008580017D0012B15D0022B13D0042B11D0052B48
:100868000FD0062B0DD0072B0BD0082B09D00A2B45
:1008780007D00C2B05D00F2B03D0D721484801F007
:100888002BFDE208083258F8220004F0070399000B
:100898000F238B4020EA030033698B40034348F859
:1008A8002230D8F800204FEA440A4FF0030909FA29
:1008B8000AF96FEA090909EA0202736803F00303F7
:1008C80003FA0AF31343C8F8003073685A1E012A62
:1008D80003D9112B01D0122B18D1F368032B3FF643
:1008E8006AAFD8F8082009EA0202F36803FA0AF3A3
:1008F8001343C8F80830D8F8042022EA05027368C0
:10090800C3F30015A5401543C8F80450D8F80C30B7
:1009180009EA0309B36803FA0AF343EA0903C8F8C2
:100928000C30736813F0805F80D000230193204B54
:100938005A6C42F480425A645B6C03F4804301931E
:10094800019BA208911C184B53F8210004F00303E3
:1009580099000F238B4020EA0300104B98453FF481
:1009680031AF03F5806398450ED003F58063984551
:100978000CD003F5806398450AD003F58063984549
:100988003FF41EAF07231EE701231CE702231AE7E3
:10099800032318E702B0BDE8F08700BF000002405B
:1009A800702600080000111000380140003C01408A
:1009B8000038024008B5054B5B69034200D108BD09
:1009C800024B586101F0ACFBF9E700BF003C014065
:1009D800002800F03B8270B582B0044603680F2BF4
:1009E80039D8236813F0010F4DD063682BB1B3F5E4
:1009F800803F02D0B3F5A02F32D1A54B9B6803F0FE
:100A08000C03042B36D0A24B9B6803F00C03082B75
:100A18002BD06368B3F5803F5FD0B3F5A02F62D0C9
:100A28009B4B1A6822F480321A601A6822F48022DA
:100A38001A606368002B60D0FFF794FD0546944B5D
:100A48001B6813F4003F1ED1FFF78CFD401B642880
:100A5800F5D90320FFE1F8218E4801F03DFCC0E7FD
:100A6800FD218C4801F038FCC7E7894B5B6813F41B
:100A7800800FCED0864B1B6813F4003F03D0636809
:100A8800002B00F0E581236813F0020F67D0E368BC
:100A9800012B41D823691F2B44D87D4B9B6813F049
:100AA8000C0F4AD07A4B9B6803F00C03082B3FD0FD
:100AB800E368002B77D0784B01221A60FFF752FDCC
:100AC8000546734B1B6813F0020F63D1FFF74AFD0D
:100AD800401B0228F5D90320BDE16D4A136843F491
:100AE80080331360A5E76A4B1A6842F480221A60C3
:100AF8001A6842F480321A609BE7FFF733FD054617
:100B0800634B1B6813F4003FBDD0FFF72BFD401B60
:100B18006428F5D903209EE140F22F115D4801F0C9
:100B2800DBFBB7E74FF498715A4801F0D5FBB4E7FF
:100B3800574B5B6813F4800FBAD1554B1B6813F001
:100B4800020F04D0E368012B01D0012083E1504A51
:100B5800136823F0F803216943EAC103136023688B
:100B680013F0080F49D06369012B2ED8636993B33A
:100B78004A4B01221A60FFF7F5FC0546444B5B6FB0
:100B880013F0020F39D1FFF7EDFC401B0228F5D90D
:100B9800032060E13E4A136823F0F803216943EA21
:100BA800C1031360DBE73C4B00221A60FFF7DAFC55
:100BB8000546374B1B6813F0020FD0D0FFF7D2FC65
:100BC800401B0228F5D9032045E14FF4B87131489C
:100BD80001F082FBCAE7314B00221A60FFF7C2FC22
:100BE80005462B4B5B6F13F0020F06D0FFF7BAFCDC
:100BF800401B0228F5D903202DE1236813F0040FC8
:100C080000F08780A368012B01D9052B38D1204B30
:100C18001B6C13F0805F39D1002301931C4B1A6CB5
:100C280042F080521A641B6C03F080530193019BBD
:100C380001251B4B1B6813F4807F33D0A368012B5D
:100C480044D0052B48D0124B1A6F22F001021A67C4
:100C58001A6F22F004021A67A368002B46D0FFF728
:100C680081FC06460A4B1B6F13F0020F4FD1FFF7AA
:100C780079FC801B41F288339842F3D90320EAE0DB
:100C88004FF4CE71034801F027FBC0E70025D0E7F9
:100C980000380240AC26000800004742800E474258
:100CA800007000406E4A136843F480731360FFF7C6
:100CB80059FC06466A4B1B6813F4807FBED1FFF7C8
:100CC80051FC801B0228F5D90320C4E0654A136F44
:100CD80043F001031367BFE7624B1A6F42F0040247
:100CE8001A671A6F42F001021A67B5E7FFF73AFC74
:100CF80006465C4B1B6F13F0020F08D0FFF732FC5F
:100D0800801B41F288339842F3D90320A3E0002DD9
:100D18003AD1A369022B3DD8A369002B00F09A8031
:100D2800504A926802F00C02082A00F09680022BC2
:100D380078D1E36913B1B3F5800F31D1236A3F2B22
:100D480034D8636AC03BF02B36D8A36A022B05D08F
:100D5800042B03D0062B01D0082B33D1E36A023BC6
:100D68000D2B35D8404B00221A60FFF7FBFB0546D8
:100D78003C4B1B6813F0007F30D0FFF7F3FB401BA0
:100D88000228F5D9032066E0364A136C23F0805315
:100D98001364BEE740F2DF11344801F09DFABBE767
:100DA8004FF4F471314801F097FAC7E740F2E911BE
:100DB8002E4801F091FAC4E74FF4F5712B4801F081
:100DC8008BFAC2E740F2EB11284801F085FAC5E733
:100DD8004FF4F671254801F07FFAC3E7E369226A08
:100DE8001343626A43EA8213A26A5208013A43EA49
:100DF8000243E26A43EA02631A4A53601A4B012229
:100E08001A60FFF7AFFB0446164B1B6813F0007F10
:100E180006D1FFF7A7FB001B0228F5D903201AE02B
:100E2800002018E0104B00221A60FFF79BFB0446D5
:100E38000C4B1B6813F0007F06D0FFF793FB001BD9
:100E48000228F5D9032006E0002004E001207047BD
:100E5800012000E0002002B070BD0120FBE700BFC8
:100E6800007000400038024060004742AC2600088D
:100E7800324B9B6803F00C03042B5CD0082B01D089
:100E88002F4870472DE9F04B2C4B5A6802F03F026F
:100E98005B6813F4800F2BD0284B5B68C3F388136F
:100EA8001E4600275C010025E41A65EB0705A90129
:100EB80041EA9461A001001B61EB0501CB0043EA04
:100EC8005073C400A01943EB07014B0243EAD05307
:100ED8004402204619460023FFF77AF9174B5B684E
:100EE800C3F3014301335B00B0FBF3F0BDE8F08BC3
:100EF800124B5B68C3F388131E4600275C0100256C
:100F0800E41A65EB0705A90141EA9461A001001BF9
:100F180061EB0501CB0043EA5073C400A01943EB11
:100F280007018B0243EA90538402204619460023A6
:100F3800FFF74EF9D2E70348704700BF0038024078
:100F48000024F40000127A00002800F0F98070B53F
:100F580004460D460368013B0E2B11D8072D15D802
:100F6800794B1B6803F00F03AB4215D2EBB2764AFC
:100F78001370136803F00F03AB420DD0012070BD4E
:100F88004FF41471714801F0A7F9E7E740F25121D5
:100F98006E4801F0A1F9E3E7236813F0020F29D0A6
:100FA80013F0040F04D06A4A936843F4E053936043
:100FB800236813F0080F04D0654A936843F460432C
:100FC8009360A3687BB1802B0DD0902B0BD0A02B06
:100FD80009D0B02B07D0C02B05D0D02B03D0E02BE5
:100FE80001D0F02B33D15A4A936823F0F003A1685B
:100FF8000B439360236813F0010F42D06368032BFF
:101008002BD86368012B2ED09A1E012A32D9504A58
:10101800126812F0020F00F095804D498A6822F09C
:10102800030213438B60FFF79DFA0646484B9B6803
:1010380003F00C036268B3EB820F22D0FFF792FA39
:10104800801B41F288339842F0D9032097E74FF488
:101058001D713E4801F040F9C5E740F27B213B484D
:1010680001F03AF9CDE73A4A126812F4003FD4D1B8
:10107800012084E7364A126812F0007FCDD10120A2
:101088007DE7314B1B6803F00F03AB4209D9EAB285
:101098002D4B1A701B6803F00F03AB4201D00120DF
:1010A8006DE7236813F0040F14D0E3685BB1B3F560
:1010B800805F08D0B3F5A05F05D0B3F5C05F02D05C
:1010C800B3F5E05F30D1224A936823F4E053E16836
:1010D8000B439360236813F0080F15D023695BB1A5
:1010E800B3F5805F08D0B3F5A05F05D0B3F5C05F56
:1010F80002D0B3F5E05F1DD1154A936823F460432D
:10110800216943EAC1039360FFF7B2FE104B9B6865
:10111800C3F303130F4AD35CD8400F4B1860002069
:10112800FFF7D6F900202AE740F2B921074801F075
:10113800D3F8C8E74FF43071044801F0CDF8DBE785
:101148000120704701201AE7003C0240AC26000845
:10115800003802401C26000820000020014B1868B7
:10116800704700BF2000002070B4036A23F0010319
:101178000362036A4268846924F073040D6845EACF
:10118800040623F002048B6823430B4DA84206D0C3
:10119800426086614A684263036270BC704723F00C
:1011A8000803CC68234323F0040322F440724C69FB
:1011B80014438A692243EBE70000014010B4036A34
:1011C800046A24F001040462846924F0F00444EA07
:1011D800021223F00A030B43826103625DF8044B99
:1011E800704710B4036A23F0100303628469036A2A
:1011F80024F4704444EA023223F0A00343EA0113C2
:10120800826103625DF8044B7047836823F07003C2
:1012180041F0070119438160704710B4846824F4D1
:101228007F4442EA03230B43234383605DF8044B66
:10123800704700002DE9F04104460E46036A23F486
:1012480080730362056A4768C36923F073080B68F3
:1012580043EA080825F400758B6845EA03251D4B09
:10126800984207D06760C4F81C807368E3632562FE
:10127800BDE8F081CB680BB1082B19D1B369B3F580
:10128800007F00D0D3B97369B3F5807F00D0DBB994
:1012980025F40065F36845EA032525F4806527F4FD
:1012A8004057736947EA0317B36947EA0317D9E751
:1012B80041F21731084801F00FF8DFE741F2183121
:1012C800054801F009F8DEE741F21931024801F05A
:1012D80003F8DDE700000140E42600082DE9F041AD
:1012E80004460F46036A23F480530362056AD0F864
:1012F8000480C66926F4E6460B6846EA032625F408
:1013080000558B6845EA03350D4B984207D0C4F861
:101318000480E6617B6823642562BDE8F0814B693F
:10132800B3F5807F00D02BB928F480487B6948EA60
:101338008318ECE741F25D31024800F0CDFFF3E796
:1013480000000140E42600087047000038B590F816
:101358003830012B00F070820D460446012380F8D6
:101368003830022380F839300B68B3F5805F11D02C
:10137800B3F5005F0ED06BB1102B0BD0202B09D02A
:10138800302B07D0402B05D0502B03D0602B01D039
:10139800702B4AD12268936823F47F4323F07703A4
:1013A80093602B68402B00F0BF8144D9702B00F06C
:1013B800058100F28F80502B00F06481602B40F093
:1013C800F6802368AD4A934217D0B3F1804F14D00A
:1013D800A2F57C42934210D002F5806293420CD071
:1013E80002F58062934208D002F59A32934204D003
:1013F80040F6C471A24800F06FFF6B68B3F5004F68
:1014080005D023B1022B02D00A2B40F08181EB6872
:101418000F2B00F28381EA6869682068FFF7E1FE14
:1014280060212068FFF7F1FEC1E040F6777194482B
:1014380000F052FFAEE7102B00F0BC8126D9202B1C
:1014480000F0D981302B40F0B28023688B4A934258
:1014580017D0B3F1804F14D0A2F57C42934210D03C
:1014680002F5806293420CD002F58062934208D064
:1014780002F59A32934204D040F6F271804800F0A7
:101488002BFF30212068FFF7C0FE90E0002B40F0D2
:101498008E802368794A934217D0B3F1804F14D0D5
:1014A800A2F57C42934210D002F5806293420CD0A0
:1014B80002F58062934208D002F59A32934204D032
:1014C8004FF47E616E4800F007FF00212068FFF7A7
:1014D8009CFE6CE0B3F5805F40D0B3F5005F66D149
:1014E8002368664A934213D0B3F1804F10D0A2F517
:1014F8007C4293420CD002F58062934208D002F5F8
:101508008062934204D040F6A4715D4800F0E4FE86
:101518006B68B3F5004F05D023B1022B02D00A2B1C
:1015280040F09980AB684BB1B3F5805F06D0B3F556
:10153800005F03D0B3F5405F40F09380EB680F2B5A
:1015480000F29580EB686A68A9682068FFF765FE75
:101558002268936843F48043936028E02368474AED
:1015680093421FD0B3F1804F1CD0A2F57C42934226
:1015780018D002F58062934214D002F5806293423B
:1015880010D002F59A3293420CD002F58062934251
:1015980008D002F58062934204D040F6837138483F
:1015A80000F09AFE2268936823F0070393600123F2
:1015B80084F83930002084F8380038BD23682F4A71
:1015C800934213D0B3F1804F10D0A2F57C429342DE
:1015D8000CD002F58062934208D002F580629342F3
:1015E80004D040F68C71264800F076FE6B68B3F59F
:1015F800004F04D01BB1022B01D00A2B19D1AB68C4
:1016080043B1B3F5805F05D0B3F5005F02D0B3F501
:10161800405F14D1EB680F2B17D8EB686A68A9688C
:101628002068FFF7FAFD2268936843F07703936018
:10163800BDE740F68E71124800F04EFEDFE740F637
:101648008F710F4800F048FEE4E74FF479610C48C9
:1016580000F042FEE1E740F6A671094800F03CFEC2
:1016680060E740F6A771064800F036FE66E740F6E8
:10167800A871034800F030FE64E700BF0000014095
:10168800E426000823686D4A93421FD0B3F1804FC7
:101698001CD0A2F57C42934218D002F58062934296
:1016A80014D002F58062934210D002F59A32934228
:1016B8000CD002F58062934208D002F58062934212
:1016C80004D040F6B6715E4800F006FE6B68B3F5CC
:1016D800004F04D01BB1022B01D00A2B0CD1EB68B0
:1016E8000F2B0FD8EA6869682068FFF767FD50215B
:1016F8002068FFF78AFD5AE740F6B971504800F0B4
:10170800EBFDECE740F6BA714D4800F0E5FDE9E77E
:1017180040F6C7714A4800F0DFFD78E640F6C87128
:10172800474800F0D9FD76E62368444A93421FD023
:10173800B3F1804F1CD0A2F57C42934218D002F539
:101748008062934214D002F58062934210D002F571
:101758009A3293420CD002F58062934208D002F587
:101768008062934204D040F6D271354800F0B4FD4F
:101778006B68B3F5004F04D01BB1022B01D00A2BC4
:101788000CD1EB680F2B0FD8EA6869682068FFF75F
:1017980015FD40212068FFF738FD08E740F6D571B0
:1017A800274800F099FDECE740F6D671244800F090
:1017B80093FDE9E72368214A934217D0B3F1804F9C
:1017C80014D0A2F57C42934210D002F58062934275
:1017D8000CD002F58062934208D002F59A32934207
:1017E80004D040F6E671164800F076FD1021206816
:1017F800FFF70BFDDBE62368104A934217D0B3F1DD
:10180800804F14D0A2F57C42934210D002F580623A
:1018180093420CD002F58062934208D002F59A32C6
:10182800934204D040F6EC71054800F055FD2021A4
:101838002068FFF7EAFCBAE60220BEE60000014095
:10184800E42600087047704770477047704710B526
:10185800044603681A6912F0020F11D0DA6812F010
:10186800020F0DD06FF002021A610123037603689C
:101878009B6913F0030F70D0FFF7E6FF0023237670
:1018880023681A6912F0040F12D0DA6812F0040FF4
:101898000ED06FF004021A610223237623689B6935
:1018A80013F4407F5FD02046FFF7CEFF0023237656
:1018B80023681A6912F0080F12D0DA6812F0080FBC
:1018C8000ED06FF008021A61042323762368DB69BF
:1018D80013F0030F4ED02046FFF7B6FF0023237600
:1018E80023681A6912F0100F12D0DA6812F0100F7C
:1018F8000ED06FF010021A61082323762368DB6983
:1019080013F4407F3DD02046FFF79EFF0023237647
:1019180023681A6912F0010F03D0DA6812F0010F78
:1019280036D123681A6912F0800F03D0DA6812F0F2
:10193800800F34D123681A6912F0400F03D0DA6897
:1019480012F0400F32D123681A6912F0200F03D029
:10195800DA6812F0200F30D110BDFFF774FF20466F
:10196800FFF773FF8AE72046FFF76DFF2046FFF772
:101978006CFF9BE72046FFF766FF2046FFF765FFF1
:10198800ACE72046FFF75FFF2046FFF75EFFBDE7A5
:101998006FF001021A612046FFF754FFC1E76FF0AC
:1019A80080021A61204600F074FBC3E76FF0400222
:1019B8001A612046FFF74AFFC5E76FF020021A6157
:1019C800204600F065FBC7E70368234A90420ED023
:1019D800B0F1804F0BD0A2F57C42904207D002F5BF
:1019E8008062904203D002F58062904203D123F0D6
:1019F80070034A681343184A90421AD0B0F1804FD6
:101A080017D0A2F57C42904213D002F58062904232
:101A18000FD002F5806290420BD002F59A329042C4
:101A280007D002F58062904203D002F580629042AE
:101A380003D123F44073CA68134303608B68C362FD
:101A48000B688362044B984202D0012343617047BC
:101A58000B690363F9E700BF00000140002855D077
:101A680010B5044603682A4A93421ED0B3F1804F4A
:101A78001BD0A2F57C42934217D002F580629342B4
:101A880013D002F5806293420FD002F59A32934246
:101A98000BD002F58062934207D002F58062934230
:101AA80003D0D7211B4800F017FCA3683BB1102BCB
:101AB80005D0202B03D0402B01D0602B16D12369F1
:101AC8002BB1B3F5807F02D0B3F5007F13D194F822
:101AD8003930ABB1022384F83930211D2068FFF773
:101AE80073FF012384F83930002010BDD82109483C
:101AF80000F0F2FBE3E7D921064800F0EDFBE6E74A
:101B080084F83830204600F075FCE3E70120704780
:101B180000000140E4260008002858D010B504460B
:101B280003682C4A93421FD0B3F1804F1CD0A2F512
:101B38007C42934218D002F58062934214D002F599
:101B48008062934210D002F59A3293420CD002F58B
:101B58008062934208D002F58062934204D040F23A
:101B6800F1311D4800F0B8FBA3683BB1102B05D03C
:101B7800202B03D0402B01D0602B16D123692BB129
:101B8800B3F5807F02D0B3F5007F14D194F83930D3
:101B9800BBB1022384F83930211D2068FFF714FFF8
:101BA800012384F83930002010BD40F2F2310A4890
:101BB80000F092FBE2E740F2F331074800F08CFBBB
:101BC800E4E784F838302046FFF7BEFBE1E7012060
:101BD800704700BF00000140E42600082DE9F041ED
:101BE80004460F46036A23F010030362056AD0F81F
:101BF8000480866926F4E6460B6846EA032625F043
:101C080020058B6845EA0315124B984207D0C4F8A3
:101C18000480A6617B68A3632562BDE8F081CB6878
:101C28000BB1082B0FD125F08005FB6845EA031599
:101C380025F0400528F440687B6948EA8308BB69B9
:101C480048EA8308E3E741F20521034800F044FB32
:101C5800E9E700BF00000140E426000890F83830AA
:101C6800012B00F00B8170B516460D460446012382
:101C780080F838303AB1042A05D0082A03D00C2A53
:101C880001D0182A1AD12B68602B01D0702B1BD1D8
:101C9800AB680BB1022B1DD12B690BB1042B1FD1E3
:101CA800022384F839300C2E57D8DFE806F01F5687
:101CB80056565D5656568E565656BA0040F6484108
:101CC8006F4800F009FBDEE740F649416C4800F038
:101CD80003FBDDE740F64A41694800F0FDFADBE71F
:101CE80040F64B41664800F0F7FAD9E72368654AA1
:101CF80093421FD0B3F1804F1CD0A2F57C4293428F
:101D080018D002F58062934214D002F580629342A3
:101D180010D002F59A3293420CD002F580629342B9
:101D280008D002F58062934204D040F653415448EB
:101D380000F0D2FA29462068FFF716FA226893695C
:101D480043F0080393612268936923F004039361C5
:101D58002268936929690B439361012384F8393018
:101D6800002084F8380070BD2368464A934217D093
:101D7800B3F1804F14D0A2F57C42934210D002F503
:101D8800806293420CD002F58062934208D002F53B
:101D98009A32934204D040F66241394800F09CFAE6
:101DA80029462068FFF71AFF2268936943F4006305
:101DB80093612268936923F480639361226893692D
:101DC800296943EA01239361C7E723682D4A9342AF
:101DD80013D0B3F1804F10D0A2F57C4293420CD0BF
:101DE80002F58062934208D002F58062934204D0E3
:101DF80040F67141224800F06FFA29462068FFF743
:101E080019FA2268D36943F00803D3612268D369B9
:101E180023F00403D3612268D36929690B43D36192
:101E28009BE72368174A934213D0B3F1804F10D031
:101E3800A2F57C4293420CD002F58062934208D00E
:101E480002F58062934204D04FF448610C4800F0D8
:101E580043FA29462068FFF741FA2268D36943F418
:101E68000063D3612268D36923F48063D361226855
:101E7800D369296943EA0123D3616EE702207047D9
:101E8800E42600080000014070B504460D461646D9
:101E98001E4B98421FD0B0F1804F1CD0A3F57C4355
:101EA800984218D003F58063984214D003F58063F4
:101EB800984210D003F59A3398420CD003F580630A
:101EC800984208D003F58063984204D041F28821F3
:101ED8000F4800F001FA65B1042D0AD0082D08D08A
:101EE8000C2D06D0182D04D041F28921084800F0A5
:101EF800F3F9012303FA05F2236A23EA02032362B2
:101F0800236A06FA05F51D43256270BD00000140ED
:101F1800E426000838B504460D460368244A93426F
:101F28002CD0B3F1804F29D0A2F57C42934225D022
:101F380002F58062934221D002F5806293421DD05F
:101F48001C4A934223D01C4A934225D01B4A9342F1
:101F580025D040F252411A4800F0BEF90122294624
:101F68002068FFF791FF2368114A93421AD022682C
:101F7800136843F001031360002038BD002DEDD035
:101F8800042DEBD0082DE9D00C2DD9D1E6E7002D92
:101F9800E4D0042DD7D1E1E7002DDFD0D6E7002D1E
:101FA800DCD0D6E75A6C42F400425A64DFE700BF3F
:101FB8000000014000400140004401400048014049
:101FC800E426000838B504460D4603682E4A9342B5
:101FD80013D0B3F1804F10D0A2F57C4293420CD0BD
:101FE80002F58062934208D002F58062934204D0E1
:101FF80040F24A61254800F06FF92B686BB1102B4D
:102008000BD0202B09D0302B07D0402B05D0502BDC
:1020180003D0602B01D0702B27D16B68802B00D0A8
:102028004BBB94F83830012B2BD0012284F8382090
:10203800022384F8393021684B6823F070034B6021
:1020480021684B68286803434B6021688B6823F03C
:1020580080038B6021688B68686803438B6084F811
:102068003920002084F8380038BD40F24B61074819
:1020780000F032F9D1E740F24C61044800F02CF945
:10208800CFE70220F0E700BF000001401C2700084E
:102098007047704710B58AB0002401941D4B1A6B25
:1020A80042F004021A631A6B02F004020192019AC8
:1020B80002941A6B42F080021A631A6B02F08002D3
:1020C8000292029A03941A6B42F001021A631A6B85
:1020D80002F001020392039A04941A6B42F0080278
:1020E8001A631B6B03F008030493049B01230593F5
:1020F800094B0693079405A90848FEF701FB2246F9
:1021080021460620FEF766FA0620FEF7A9FA0AB06D
:1021180010BD00BF0038024000001110000002404E
:1021280008B5FEF71FFA0B4B1B68C01A632800D8C6
:1021380008BDFEF717FA074B1860074B1B68012B01
:1021480003D0054B01221A60F2E7034A5368013BAA
:102158001360EDE74000002008000020FEE70000C3
:1021680000B595B000220192284B196C41F08051BE
:1021780019641B6C03F080530193019B0292244B5A
:10218800196841F4404119601B6803F44043029305
:10219800029B0223089301210B9110210C910E93AD
:1021A8000F9208221092322111911293139208A8CB
:1021B800FEF70EFC10BB0F230393022304930023A6
:1021C80005934FF4A05206920793012103A8FEF746
:1021D800BBFEB8B9FEF7C2FF0E4BA3FB0030800967
:1021E800FEF754FA0420FEF767FA002211464FF072
:1021F800FF30FEF7EFF915B05DF804FBB42106488F
:10220800FFF7ACFFC2210448FFF7A8FF00380240DF
:1022180000700040D34D62105827000810B5FEF733
:102228007BF9FFF79DFFFFF735FF00F01FF9264CFC
:1022380000212046FFF76EFE04212046FFF76AFEC4
:1022480008212046FFF766FE0C212046FFF762FEB4
:1022580038E00134952C10DC1420FEF789F91B4B6B
:102268005A681B4B03EB82039A6813881949C96A99
:102278008B42EED205331380EBE7002400E00134F3
:10228800952C0EDC1420FEF773F9104B5A68104B8E
:1022980003EB82039A681388002BF0D0053B138068
:1022A800EDE70B49094A536801EB83039B6800205B
:1022B80018800B68506803444868B3FBF0F100FBD2
:1022C800113353600024C5E74C0000204000002073
:1022D80008000020000800407047000010B582B0D8
:1022E80000240094214B5A6C42F480425A645A6C80
:1022F80002F480420092009A01941A6C42F08052D3
:102308001A641B6C03F080530193019B0720FEF7AE
:1023180043F9224621466FF00B00FEF75BF922468F
:1023280021466FF00A00FEF755F9224621466FF064
:102338000900FEF74FF9224621466FF00400FEF728
:1023480049F9224621466FF00300FEF743F9224679
:1023580021466FF00100FEF73DF9224621464FF075
:10236800FF30FEF737F902B010BD00BF0038024059
:102378007047FEE7FEE7FEE7FEE7704770477047E5
:1023880008B5FEF7E3F8FEF7B6F908BD08B5012071
:10239800FEF710FB08BD000008B50248FFF757FA22
:1023A80008BD00BF4C0000200F49D1F8883043F425
:1023B8007003C1F888300D4B1A6842F001021A60A8
:1023C800002098601A6822F0847222F480321A6021
:1023D800074A5A601A6822F480221A60D8604FF0BF
:1023E80000638B60704700BF00ED00E000380240DA
:1023F8001030002402680E4B9A4200D0704700B596
:1024080083B00021019103F50C331A6C42F00402E9
:102418001A641B6C03F004030193019B0A461E20F7
:10242800FEF7D8F81E20FEF71BF903B05DF804FB91
:102438000008004002680B4B9A4200D0704700B574
:1024480087B04FF470430193022302930022039252
:102458000493059301A90448FEF752F907B05DF803
:1024680004FB00BF00080040000C024000B58FB01C
:102478003848394B03600023436083604FF47A7215
:10248800C2600361FFF7EAFA00283BD10EA94FF4B6
:10249800805341F8103D2F48FEF758FF002836D1E9
:1024A8002C48FFF739FB002836D1002308930993FD
:1024B80008A92848FFF786FD002832D16023019338
:1024C800002202920392059201A92248FFF7C6FB57
:1024D80060BB04220DEB02011E48FFF7BFFB50BB97
:1024E800082201A91B48FFF7B9FB48BB0C2201A928
:1024F8001848FFF7B3FB40BB1648FFF79BFF0FB028
:102508005DF804FB3F211548FFF728FEBEE745218B
:102518001248FFF723FEC3E74A211048FFF71EFEC3
:10252800C3E751210D48FFF719FEC7E75A210B48A9
:10253800FFF714FECDE75F210848FFF70FFECFE74E
:1025480064210648FFF70AFED0E769210348FFF730
:1025580005FED1E74C00002000080040682700086D
:10256800DFF834D0002103E00C4B5B5843500431B2
:102578000B480C4B42189A42F6D30B4A02E0002350
:1025880042F8043B094B9A42F9D3FFF70DFF00F0DC
:1025980011F8FFF743FE7047000002208827000863
:1025A80000000020240000202400002088000020D3
:1025B800FEE7000070B50D4E0D4CA41BA4100025BD
:1025C800A54209D10B4E0C4C00F018F8A41BA4101E
:1025D8000025A54205D170BD56F82530984701352C
:1025E800EEE756F8253098470135F2E780270008CE
:1025F800802700088027000884270008F8B500BF56
:10260800F8BC08BC9E467047F8B500BFF8BC08BCCB
:042618009E46704723
:10261C000000000000000000010203040607080986
:10262C0000000000010203042E2E2F44726976650F
:10263C0072732F53544D3332463478785F48414C83
:10264C005F4472697665722F5372632F73746D33A6
:10265C0032663478785F68616C5F636F727465782A
:10266C002E6300002E2E2F447269766572732F53E1
:10267C00544D3332463478785F48414C5F4472692C
:10268C007665722F5372632F73746D3332663478A0
:10269C00785F68616C5F6770696F2E630000000083
:1026AC002E2E2F447269766572732F53544D33322C
:1026BC00463478785F48414C5F4472697665722F76
:1026CC005372632F73746D3332663478785F68613C
:1026DC006C5F7263632E63002E2E2F4472697665D5
:1026EC0072732F53544D3332463478785F48414CD3
:1026FC005F4472697665722F5372632F73746D33F6
:10270C0032663478785F68616C5F74696D2E630033
:10271C002E2E2F447269766572732F53544D3332BB
:10272C00463478785F48414C5F4472697665722F05
:10273C005372632F73746D3332663478785F6861CB
:10274C006C5F74696D5F65782E6300002E2E2F53BD
:10275C0072632F6D61696E2E630000002E2E2F5355
:0C276C0072632F74696D2E630000000082
:0827780090DAFF7F0100000070
:04278000BD0100088F
:0427840099010008AF
:10278800010000001000000001000000040000002B
:1027980034080040380800403C0800404008004029
:0427A8000024F40015
:040000050800256961
:00000001FF
