:020000040800F2
:1000000000000220454D0008DD490008DF490008D6
:10001000E1490008E3490008E54900080000000044
:10002000000000000000000000000000E749000898
:10003000E949000800000000EB490008ED4900080C
:10004000954D0008954D0008954D0008954D000808
:10005000954D0008954D0008F9490008954D000898
:10006000954D0008954D0008954D0008954D0008E8
:10007000954D0008954D0008954D0008954D0008D8
:10008000954D0008954D0008954D000800000000B2
:10009000000000000000000000000000954D000876
:1000A000954D0008954D0008954D0008954D0008A8
:1000B000954D0008954D0008954D0008954D000898
:1000C000954D0008954D0008954D0008954D000888
:1000D000954D0008954D0008954D00080000000062
:1000E000954D0008954D0008954D00080000000052
:1000F000000000000000000000000000954D000816
:1001000000000000954D0008954D0008954D000831
:1001100000000000000000000000000000000000DF
:10012000954D0008954D0008954D0008954D000827
:10013000954D0008000000000000000000000000D5
:10014000000000000000000000000000054A000858
:10015000954D0008954D0008954D0008954D0008F7
:10016000954D0008954D00080000000000000000BB
:10017000000000000000000000000000000000007F
:1001800000000000954D0008000000000000000085
:08019000954D0008954D000893
:1001980010B5054C237833B9044B13B10448AFF3B9
:1001A80000800123237010BDA00000200000000083
:1001B800904F000808B5034B1BB103490348AFF340
:1001C800008008BD00000000A4000020904F000837
:1001D80053B94AB9002908BF00281CBF4FF0FF31A6
:1001E8004FF0FF3000F072B9ADF1080C6DE904CEA4
:1001F80000F006F8DDF804E0DDE9022304B07047FA
:100208002DE9F047089E04468846002B4BD18A42C8
:10021800154667D9B2FA82F24AB1C2F1200701FA4B
:1002280002F320FA07F7954047EA030894404FEA9B
:10023800154E230CB8FBFEF71FFA85FC0EFB17883A
:1002480043EA084307FB0CF1994209D9EB1807F177
:10025800FF3080F01B81994240F21881023F2B4405
:100268005B1AA4B2B3FBFEF00EFB103344EA03445E
:1002780000FB0CFCA44509D92C1900F1FF3380F0D0
:100288000781A44540F2048102382C4440EA074023
:10029800A4EB0C0400271EB1D4400023C6E9004398
:1002A8003946BDE8F0878B4209D9002E00F0EB8073
:1002B8000027C6E9000138463946BDE8F087B3FA99
:1002C80083F7002F47D18B4202D3824200F2FA8093
:1002D800841A61EB030301209846002EE0D0C6E99A
:1002E8000048DDE702B9FFDEB2FA82F2002A40F0E8
:1002F8008F80491B4FEA154E1FFA85F80127B1FB7D
:10030800FEFC230C0EFB1C1143EA014308FB0CF115
:10031800994207D9EB180CF1FF3002D2994200F24A
:10032800CD808446591AA3B2B1FBFEF00EFB10141F
:1003380043EA044408FB00F8A04507D92C1900F14A
:10034800FF3302D2A04500F2B6801846A4EB080499
:1003580040EA0C409FE7C7F1200CBB4022FA0CFE94
:100368004EEA030E01FA07F420FA0CF521FA0CF311
:100378004FEA1E482543B3FBF8F92C0C08FB193348
:100388001FFA8EFA44EA034309FB0AF49C4202FA74
:1003980007F200FA07F10BD91EEB030309F1FF304E
:1003A80080F087809C4240F28480A9F1020973445E
:1003B8001B1BADB2B3FBF8F008FB103345EA03444E
:1003C80000FB0AFAA24508D91EEB040400F1FF332A
:1003D8006BD2A24569D90238744440EA0940A0FBAF
:1003E8000289A4EB0A044C45C2464B4654D351D06B
:1003F800002E69D0B1EB0A0564EB030404FA0CFC87
:10040800FD40FC404CEA0505C6E90054002747E7D3
:10041800C2F1200320FA03F7954001FA02F021FA0D
:1004280003F34FEA154E3843010CB3FBFEF71FFAEE
:1004380085F80EFB173341EA034107FB08F38B42AB
:1004480004FA02F407D9691807F1FF3C2FD28B424E
:100458002DD9023F2944CB1A81B2B3FBFEF00EFB23
:10046800103341EA034100FB08F38B4207D96918AE
:1004780000F1FF3C17D28B4215D902382944C91A1A
:1004880040EA07473BE73746304609E70746E7E6CD
:100498001846FBE64145ABD2B8EB020A69EB0E02FF
:1004A80001381346A4E76046E9E7184695E767462A
:1004B800D1E781467CE702382C4447E7ACF1020CCF
:1004C8002B442FE7384608E73746E9E6704700BF70
:1004D80010B504460E4B18784FF47A73B3FBF0F35B
:1004E8000C4A1068B0FBF3F000F0D0F868B90F2C94
:1004F80001D901200AE0002221464FF0FF3000F028
:1005080069F8034B5C60002000E0012010BD00BFCB
:10051800000000203800002008B50B4B1A6842F490
:1005280000721A601A6842F480621A601A6842F40B
:1005380080721A60032000F02FF80020FFF7C8FF30
:1005480004F0FEF9002008BD003C0240034A11688F
:10055800034B1B780B441360704700BFD00000208A
:1005680000000020014B1868704700BFD000002031
:1005780038B50446FFF7F6FF0546B4F1FF3F02D051
:10058800044B1B781C44FFF7EDFF401BA042FAD335
:1005980038BD00BF0000002010B50446C31E042B60
:1005A8000FD80A4AD36823F4E0631B041B0C240207
:1005B80004F4E064234343F0BF6343F40033D3609F
:1005C80010BDA221024804F06DF9EAE700ED00E051
:1005D800C04F000870B505460C4616460F2A25D8A8
:1005E8000F2C28D81B4BDB68C3F30223C3F1070287
:1005F800042A28BF0422191D062921D9033B4FF0DC
:10060800FF3101FA02F224EA02049C4001FA03F3E2
:1006180026EA03063443002D14DB2401E4B205F175
:10062800604505F5614585F8004370BDBA210A4863
:1006380004F038F9D4E7BB21074804F033F9D1E7CF
:100648000023DCE705F00F052401E4B2034B5C55F9
:10065800EBE700BF00ED00E0C04F000814ED00E03C
:1006680010B5041E08DB04F01F026409012393403F
:10067800044A42F8243010BDCE21034804F012F990
:10068800F1E700BF00E100E0C04F00080138B0F119
:10069800807F0AD2064B5860064AF02182F8231060
:1006A8000020986007221A6070470120704700BF39
:1006B80010E000E000ED00E010B50446042800D08A
:1006C80038B9042C0BD0094A136823F004031360CB
:1006D80010BD40F2D911064804F0E4F8F1E7034AE6
:1006E800136843F004031360F2E700BF10E000E072
:1006F800C04F0008704708B5FFF7FCFF08BD0000B1
:100708002DE9F04782B080460E46A44B984217D098
:1007180003F58063984213D003F5806398420FD0A5
:1007280003F5806398420BD003F58063984207D0A5
:1007380003F54063984203D0C321994804F0B2F806
:1007480033689AB212B11B0C1B041BB1C421944824
:1007580004F0A8F87368012B1ED9112B1CD0022BAA
:100768001AD0122B18D08F4A934215D002F5801256
:10077800934211D002F5801293420DD0A2F5F812DF
:10078800934209D002F58012934205D002F58012F7
:10079800934201D0032B04D1B368022B06D800245E
:1007A80045E0C5217E4804F07DF8F5E7C6217C4880
:1007B80004F078F8F3E7EA21794804F073F890E058
:1007C800042300E000238B4003430232764941F8BA
:1007D8002230764B1A68FB4303EA0201706810F472
:1007E800803F01D047EA0201704A1160526803EA6B
:1007F8000201706810F4003F01D047EA02016B4A19
:100808005160926803EA0201706810F4801F01D0F9
:1008180047EA0201654A9160D2681340716811F491
:10082800001F01D047EA0203604AD36001340F2C4D
:1008380000F2B0800125A54037682F40BD42F5D1B0
:100848007368022B01D0122B2BD13369CBB1092B42
:1008580017D0012B15D0022B13D0042B11D0052B48
:100868000FD0062B0DD0072B0BD0082B09D00A2B45
:1008780007D00C2B05D00F2B03D0D721484804F004
:1008880011F8E208083258F8220004F0070399002A
:100898000F238B4020EA030033698B40034348F859
:1008A8002230D8F800204FEA440A4FF0030909FA29
:1008B8000AF96FEA090909EA0202736803F00303F7
:1008C80003FA0AF31343C8F8003073685A1E012A62
:1008D80003D9112B01D0122B18D1F368032B3FF643
:1008E8006AAFD8F8082009EA0202F36803FA0AF3A3
:1008F8001343C8F80830D8F8042022EA05027368C0
:10090800C3F30015A5401543C8F80450D8F80C30B7
:1009180009EA0309B36803FA0AF343EA0903C8F8C2
:100928000C30736813F0805F80D000230193204B54
:100938005A6C42F480425A645B6C03F4804301931E
:10094800019BA208911C184B53F8210004F00303E3
:1009580099000F238B4020EA0300104B98453FF481
:1009680031AF03F5806398450ED003F58063984551
:100978000CD003F5806398450AD003F58063984549
:100988003FF41EAF07231EE701231CE702231AE7E3
:10099800032318E702B0BDE8F08700BF000002405B
:1009A800FC4F00080000111000380140003C0140D5
:1009B8000038024070B5064615460C4629B1012D8F
:1009C80009D875B92404B46170BD40F2AF11064866
:1009D80003F068FFF3E74FF4D871034803F062FFB0
:1009E800EFE7B461F0E700BFFC4F000808B5054B1E
:1009F8005B69034200D108BD024B586103F092FEC7
:100A0800F9E700BF003C0140F8B50668346A04F015
:100A18000F07C4F34343C4F30A14022B2ED16CB35B
:100A280007EB8702D3000344596C39B305462246C5
:100A3800304602F0FBF8BA003A44D3002B445A6C13
:100A480022445A64DA6C2244DA6406EB4713D3F87A
:100A580010150B4A0A408AB1D3F8002522F08042CB
:100A680042F00042C3F80025BB00D919CA002A4445
:100A780092F8503083F0010382F85030F8BD00BF7F
:100A88000000F81FF0B585B09DF828609DF82C701F
:100A9800BDF830C090F89042012C2AD005460120BC
:100AA80085F89002880000EB010E4FEACE042C4432
:100AB80084F83830A4F840C084F8391084F83F70BE
:100AC80002F07F0E84F83AE04FEAD21E84F83BE049
:100AD8000844C4002C4484F83C60CDF808C0019751
:100AE8000096286802F0BBF9002385F8903205B01B
:100AF800F0BD0220FBE790F89032012B0BD010B527
:100B08000446012380F89032006802F062FB00205E
:100B180084F8900210BD022070470000002840D0E1
:100B2800F0B58BB006460368B3F1A04F03D08A2115
:100B38001D4803F0B7FE032386F89132304603F0D0
:100B4800BFFF306802F01CF8344654F810CB6D46ED
:100B58000FCC0FC50FCC0FC594E8030085E8030040
:100B6800371D97E80E00604601F0C6FF0121306886
:100B780002F00CF8344654F810CB6D460FCC0FC574
:100B88000FCC0FC594E8030085E8030097E80E0032
:100B9800604602F085F8012386F8913200200BB0F8
:100BA800F0BD0120704700BF38500008F8B59DF827
:100BB8001870BDF820609DF824C08D000D44EC002D
:100BC800044484F83B2084F83F306FB901EB810579
:100BD800EC000444032584F84250032B00F2B38050
:100BE800DFE803F00AAA3E7B01EB8105EC00044430
:100BF800022584F84250F0E7012F40F0A480002A33
:100C080040F0A18036B901EB8102D30003440122F0
:100C180083F8512001EB8102D300034493F851304B
:100C2800B3B901EB8102D3000344002283F84220C8
:100C380001EB8102D300034493F85C30022B00F0EF
:100C4800828001EB8102D300034483F83DC07AE03F
:100C580001EB8102D3000344022283F84220E7E734
:100C680022BB01EB8102D300034493F85130ABB9A6
:100C780001EB8102D3000344002283F8422001EBF8
:100C88008102D300034493F85C30022B5BD001EB64
:100C98008102D300034483F83DC054E001EB810294
:100CA800D3000344022283F84220E8E701EB8102E3
:100CB800D300034493F850303BB901EB8102D300D1
:100CC8000344002283F842203DE001EB8102D30077
:100CD8000344022283F8422035E0B2B901EB8102D5
:100CE800D300034493F851303BB901EB8102D300A0
:100CF8000344002283F8422025E001EB8102D3005F
:100D08000344022283F842201DE001EB8102D30054
:100D1800034493F850303BB901EB8102D3000344FC
:100D2800002283F842200EE001EB8102D300034445
:100D3800022283F8422006E001EB8102D30003443B
:100D4800002283F842208A005418E3000344079CD9
:100D58005C649E64002483F85C40DC6483F839108A
:100D680083F85D401144CB0003F13801027C014453
:100D7800006802F0E5F8F8BD30B583B005460468B0
:100D8800D4F840340193D4F840340093009B23F006
:100D98002E030093019B13F0020F07D0019B13F061
:100DA800010F25D1009B43F002030093019B13F030
:100DB800080F10D0009B43F008030093019B13F029
:100DC800040F31D0AB69022B19D0EB68032B26D066
:100DD800284603F0B9FE019B13F0200F03D0009BB7
:100DE80043F020030093009BC4F8403403B030BDA7
:100DF800A36923F00053A36103F0A6FED2E7019B89
:100E080003F4C023B3F5802F04D00121286801F032
:100E1800BDFFDDE70221286801F0B8FFD8E74EF6EC
:100E28006022C4F80424D3E7D4F8403423F02E0316
:100E3800C4F840342A68936943F000539361CAE7C1
:100E4800F8B506460D46076807EB411707F5A06495
:100E5800A36813F0040F41D00423A360E36843F0B0
:100E68000203E360A36813F4007F6DD1A36813F055
:100E7800010F00F08A80336963B1AB005919CA00C9
:100E88003244916C2269C2F31202891A2B44DA00A7
:100E98003244D164AA002A44D3003344012283F89F
:100EA8005D2000219965A26093F83F30002B57D050
:100EB800022B55D0032B5DD1D7F8003543F00053F2
:100EC800C7F8003505EB8502D3003344012283F8C7
:100ED8005C202946304603F043FE4BE0A36813F03C
:100EE800200F02D02023A360BCE7A36813F0080FEB
:100EF80017D1A36813F4806FB4D0E36843F00203FA
:100F0800E360006802F065F91023A36005EB850231
:100F1800D3003344082283F85D204FF48063A36034
:100F2800A0E7E36843F00203E36001EB8102D3002A
:100F38000344052283F85D201023A3600823A360DF
:100F4800006802F046F98DE7E36843F00203E360C6
:100F58002946306802F03DF94FF40073A36013E0AE
:100F6800E36843F00203E3602946306802F031F990
:100F78001023A360AB005919CA00324492F85030CC
:100F880083F0010382F85030F8BDA36813F0020F14
:100F980050D0E36823F00203E36005EB8502D30039
:100FA800334493F85D30012B20D0052B32D0062B2B
:100FB80001D0082B21D1AA002A44D30033449A6DCA
:100FC800511C9965032A2DD9AA002A44D300334419
:100FD80000229A65042283F85C20D7F8003523F0B4
:100FE800804343F00043C7F8003506E005EB85026F
:100FF800D3003344012283F85C200223A36005EB6D
:101008008502D300334493F85C202946304603F028
:10101800A7FDB9E705EB8502D3003344052283F821
:101028005C20EAE705EB8502D3003344022283F80B
:101038005C20D2E7A36813F0800F26D1A36813F0D1
:10104800100FA1D005EB8502D300334493F83F304D
:10105800032B32D0AB005919CA003244032182F85D
:101068005D101022A2601D4405FA01F31E4496F893
:101078003F300BB1022B87D1D7F8003523F08043DE
:1010880043F00043C7F800357EE7E36843F0020306
:10109800E360AB005919CA003244916D0131916582
:1010A8002B44DA003244062382F85D302946306842
:1010B80002F08FF88023A36066E7E36843F0020339
:1010C800E3602946306802F084F8C3E7F8B504689D
:1010D80004EB411404F5A064A36813F0040F24D1B1
:1010E8000E460546A36813F0200F25D02023A360E1
:1010F80001EB8102D300034493F83D30012B1AD150
:101108008F007A18D3000344042283F85D20E36833
:1011180043F00203E360006802F05BF8B919C80005
:101128002844022380F85C3005E00423A360E368C8
:1011380043F00203E360F8BDA36813F0400F4CD1FD
:10114800A36813F4007F5FD1A36813F0010F66D181
:10115800A36813F0080F77D1A36813F0100F40F0BD
:101168008480A36813F0800F40F09580A36813F47F
:10117800806F40F0A180A36813F0020FDBD0E36812
:1011880023F00203E36001EB8102D300034493F8E8
:101198005D30012B00F0A480032B00F0C480042BE9
:1011A80000F0C980052B00F0D180062B02D0082B57
:1011B80040F0A180B2003244D3002B449A6D511CF8
:1011C8009965032A40F2CA80282303FB06530022AC
:1011D8009A65042283F85C208DE08B005918CA00B8
:1011E8000244042182F85D103344DA0002440023EB
:1011F8009365E36843F00203E3603146006801F059
:10120800E8FF4023A36096E7E36843F00203E36046
:10121800006801F0DEFF4FF40073A3608BE78F00D6
:101228007A18D300034400229A65E36843F0020366
:10123800E360006801F0CDFF0123A360B919C8007D
:10124800284480F85D3076E70823A360E36843F01C
:101258000203E360006801F0BCFF06EB8601C800EA
:101268002844052380F85D3065E78F007A18D3009D
:10127800034400229A65E36843F00203E3600068D0
:1012880001F0A7FFB919C8002844032380F85D308E
:101298001023A3604FE7E36843F00203E3600068AC
:1012A80001F097FF06EB8601CB002B44062283F85A
:1012B8005D208023A3603EE7E36843F00203E36018
:1012C800006801F086FF1023A3604FF48063A360D9
:1012D80006EB8601CB002B44082283F85D202AE721
:1012E8008A000A44D3000344012283F85C2093F85F
:1012F8003F30022B0CD00223A36006EB8602D300FA
:101308002B4493F85C203146284603F029FC12E769
:101318008A000A44D300034493F8512082F0010262
:1013280083F85120E7E701EB8102D300034402224E
:1013380083F85C20DFE78A000A44D30003440222D2
:1013480083F85C20002283F83D20D4E701EB81027A
:10135800D3000344052283F85C20CCE7282303FB51
:101368000653022283F85C20C5E7F8B504460568F1
:10137800284601F073FC012800D0F8BD206801F070
:1013880069FC0028F9D0206801F064FC10F4001F03
:1013980003D023684FF400125A61206801F05AFC08
:1013A80010F4801F03D023684FF480125A6120681C
:1013B80001F050FC10F0806F03D023684FF080627A
:1013C8005A61206801F046FC10F0020F02D0236831
:1013D80002225A61206801F03DFC10F0005F25D11F
:1013E800206801F037FC10F0807F31D1206801F0CF
:1013F80031FC10F0080F2FD1206801F02BFC10F001
:10140800007F30D1206801F025FC10F0100FB4D017
:101418002268936923F0100393612046FFF7F4FADA
:101428002268936943F010039361A6E7D5F8403426
:1014380023F02E03C5F84034204603F08BFB01212E
:10144800206801F0A3FC23684FF000525A61C7E7F7
:101458002046FFF791FCC9E7204603F06FFB23689D
:1014680008225A61C8E7206801F0A4FE0746002652
:1014780004E0F1B22046FFF729FE0136A368B34223
:101488000FD90123B3403B42F7D005EB4613D3F8FD
:10149800003513F4004FECD0F1B22046FFF7D0FC32
:1014A800EBE723684FF000725A61ABE738B590F864
:1014B8009032012B0ED00446012580F89052006826
:1014C80001F058FB2946206801F09AFC002084F8B6
:1014D800900238BD0220FCE790F89032012B0BD027
:1014E80010B50446012380F89032006801F08CFFA3
:1014F800002084F8900210BD0220704708B50068EB
:1015080001F064FC08BD01EB8101CB00184490F8A0
:101518005C00704701EB8101CB001844C06C704738
:1015280008B5006801F096FC08BD08B5006801F030
:1015380088FC08BD002800F0EB8010B5044603685D
:10154800744A93420CD002F58062934208D002F5A7
:101558008062934204D04FF4B7716F4803F0A2F948
:101568006368013B6D4A934267D8A36813B1B3F52A
:10157800804F68D1E36823F47F7323F00303002BC3
:1015880067D12369B3F5804F02D0B3F5404F66D1D8
:101598006369012B69D8A36933F0FE036BD1E36952
:1015A8000BB1402B6DD1236A0BB1802B6FD194F80E
:1015B8003D30002B71D0242384F83D302268136815
:1015C80023F00103136001F013F8554BA3FB00232C
:1015D8009B0C226853606168524A914263D8013378
:1015E8002268136263684F4A934266D85B00B0FB77
:1015F800F3F0C0F30B03032B00D804202368D86151
:10160800E369216A22680B4313602369E168226851
:101618000B4393606369A16922680B43D360226816
:10162800136843F00103136000202064202384F82A
:101638003D30206384F83E0010BD40F26F113648FB
:1016480003F030F991E74FF4B871334803F02AF901
:1016580090E740F27111304803F024F991E74FF414
:10166800B9712D4803F01EF992E740F273112A4828
:1016780003F018F98FE74FF4BA71274803F012F90D
:101688008DE740F27511244803F00CF98BE74FF40D
:10169800BB71214803F006F989E784F83C302046FD
:1016A80002F066FF87E74FF4967202FB03F31E4AC7
:1016B800A2FB03239B09013392E7A16889B903EBD5
:1016C8004302B0FBF2F2C2F30B02B2FA82F2520901
:1016D800E2B991B903EB4303B0FBF3F040F40040E7
:1016E8008CE703EB830202EB8202B0FBF2F2C2F357
:1016F8000B02B2FA82F25209EAE703EB830303EB27
:101708008303B0FBF3F040F4404077E7012075E72E
:101718000120704700540040705000087F1A0600EE
:1017280083DE1B43A0860100D34D6210704708B5C5
:10173800436A9A1C426202681B88D360438D013B4E
:101748009BB24385438D9BB203B108BD02685368C1
:1017580023F0A0031B041B0C5360012380F84130C5
:10176800FFF7E4FFF1E7704708B50368DA68C36A72
:10177800991CC1621A80438E013B9BB24386438EFB
:101788009BB203B108BD0268536823F060031B04D1
:101798001B0C5360012380F84130FFF7E4FFF1E7A9
:1017A80070470000002800F0328170B504460368D5
:1017B800984A934213D0A2F5784293420FD002F58B
:1017C800806293420BD002F57842934207D002F52B
:1017D800E052934203D0E3218F4803F063F8636833
:1017E8004BB1B3F5807F06D0B3F5007F03D0B3F5D6
:1017F800407F40F08280A3683BB1102B05D0202B9E
:1018080003D0302B01D0B02B7CD1E368012B03D956
:10181800032B01D0052B7AD12369B3F5007F01D0C2
:10182800002B79D16369A3F5FA517C4A914201D919
:10183800022B76D1A3690BB1082B77D1E369012B71
:1018480079D8022584F84150754B6363204602F02D
:10185800FDFE2268D36923F47B6323F00F03D36171
:1018680023681D622368DD696369022B00F08280AA
:10187800E368002B64D02026A368202B00D87600CC
:10188800012001F02BF82369B3F5007F5AD0B0FB93
:10189800F6F000EB800043006269B3FBF2F3053316
:1018A800604AA2FB0323DB0803F001029B1AC3F37F
:1018B8004F0311029A1EFD2A5ED822690A43216845
:1018C80013430B626268A168E068238B03439BB2F1
:1018D8000B439BB213439BB243F400631D4323683D
:1018E800DD61236A012B50D8236A012B53D00020D5
:1018F8006064012384F8413070BDE421464802F059
:10190800D1FF78E7E521444802F0CCFF7DE7E621E6
:10191800414802F0C7FF7FE7E7213F4802F0C2FFD6
:1019280080E7E8213C4802F0BDFF83E7E9213A4817
:1019380002F0B8FF82E7EA21374802F0B3FF80E7F8
:10194800102699E7E36853B1B600B0FBF6F000EB58
:10195800800043006269B3FBF2F30533A0E7F600A9
:10196800B0FBF6F000EB800043006269B3FBF2F3D2
:10197800053395E700219DE7636C43F0100363642A
:101988002046FFF70DFF0120B6E74FF4B671224855
:1019980002F088FFA8E7244B63632268234B9A422E
:1019A8001ED04FF04022D36923F47B6323F00F034A
:1019B800D36122681D4B9A4214D04FF04022022373
:1019C80013622268194B9A420ED04FF04022D06918
:1019D8006168B1F5007F09D0B9B94FF4807607E0A6
:1019E800134AE0E7124AEAE7114AF0E74FF4807633
:1019F800A168E568238B2B439BB20B439BB233430F
:101A080043F400630343D36171E70026F0E7012044
:101A1800704700BF00300140A8500008C0CE020047
:101A28003D1A0008CDCCCCCC591C00080038004029
:101A38000034004010B584B00446026893680393EC
:101A480090F84130DBB2042B06D094F84130DBB279
:101A5800032B2ED004B010BD039B13F0010F03D04D
:101A6800536813F0400F21D1039B13F0400FECD0C3
:101A780023685A6812F0200FE7D05A6822F06002F3
:101A88001204120C5A60002301932368DA68019249
:101A98009B680193019B012384F84130636C43F0F8
:101AA800020363642046FFF77BFECEE7FFF75CFE88
:101AB800DAE7039B13F0020F04D023685B6813F086
:101AC800800F1FD1039B13F0080FC3D023685A68F7
:101AD80012F0200FBED05A6822F0A0021204120C95
:101AE8005A600023029323689B680293029B012398
:101AF80084F84130636C43F0040363642046FFF7C5
:101B08004FFEA7E72046FFF712FEDBE7704700000D
:101B180008B5E9B9436A9A1C426202681B88D36017
:101B2800438D013B9BB24385438D9BB24BB9026801
:101B3800536823F0A0031B041B0C5360438E9BB215
:101B480003B108BD012380F84130FFF7DFFFF8E754
:101B5800436A9A1C42621A880168134B99421ED044
:101B68004FF04023DA60438D013B9BB24385438DA0
:101B78009BB2002BE5D102680B4B9A4212D04FF072
:101B88004022536823F0A0035360438E9BB2002B7E
:101B9800D7D1012380F84130FFF7B8FFD1E7A3F58B
:101BA8008063DFE7014AECE700380040003400407A
:101BB80008B5E9B90368DA68C36A991CC1621A8072
:101BC800438E013B9BB24386438E9BB24BB902685E
:101BD800536823F060031B041B0C5360438D9BB2B6
:101BE80003B108BD012380F84130FFF78FFFF8E704
:101BF8000268154B9A4222D04FF04023DA68C36A34
:101C0800991CC1621A80438E013B9BB24386438E66
:101C18009BB2002BE5D102680B4B9A4212D04FF0D1
:101C28004022536823F060035360438D9BB2002B1E
:101C3800D7D1012380F84130FFF768FFD1E7A3F53A
:101C48008063DBE7014AECE70038004000340040DD
:101C580010B584B0044603689A6803927C4A93429C
:101C68005DD04FF040218A680292DA6902F440722E
:101C7800B2F5007F04D0DA6912F4407F40F0818029
:101C8800039A12F0020F03D05B6813F0800F48D15B
:101C9800029B13F0010F09D022686D4B9A4245D080
:101CA8004FF040235B6813F0400F42D1029B13F0C2
:101CB800400F09D02268664B9A423FD04FF040232C
:101CC8005A6812F0200F3CD1039B13F0080F24D060
:101CD80023685A6812F0200F1FD05A6822F0A00219
:101CE8001204120C5A602268594B9A4247D04FF09E
:101CF8004022536823F06003536000230193236854
:101D08009B680193019B012384F84130636C43F085
:101D1800040363642046FFF743FD04B010BD4D493A
:101D2800A1E700212046FFF7F3FEB1E7A3F58063A2
:101D3800B8E701212046FFF73BFFB7E7A3F580632B
:101D4800BEE75A6822F060025A602268536823F09E
:101D5800A0031B041B0C5360002300932368DA685C
:101D680000929B680093009B012384F84130636CC8
:101D780043F0020363642046FFF712FDA4E7354AE7
:101D8800B7E7029B13F0020F03D04B6813F0800FE4
:101D98004FD1039B13F0010F04D023685B6813F045
:101DA800400F4BD1039B13F0400F1ED023685A6895
:101DB80012F0200F19D05A6822F060021204120C97
:101DC8005A602268224B9A423DD04FF04022536815
:101DD80023F0A0035360012384F84130636C43F07F
:101DE800020363642046FFF7DBFC029B13F0080F35
:101DF80093D02268164B9A4227D04FF040235A6856
:101E080012F0200F89D05A6822F0A0025A60226886
:101E1800536823F060031B041B0C5360012384F8F0
:101E28004130636C43F0040363642046FFF7B8FC59
:101E380073E701212046FFF76BFEAAE70021204641
:101E4800FFF7B6FEAEE7034AC1E7A3F58063D6E71E
:101E58000038004000340040002800F03B8270B594
:101E680082B0044603680F2B39D8236813F0010F9A
:101E78004DD063682BB1B3F5803F02D0B3F5A02FE6
:101E880032D1A54B9B6803F00C03042B36D0A24B30
:101E98009B6803F00C03082B2BD06368B3F5803FD5
:101EA8005FD0B3F5A02F62D09B4B1A6822F4803222
:101EB8001A601A6822F480221A606368002B60D0C6
:101EC800FEF750FB0546944B1B6813F4003F1ED1E8
:101ED800FEF748FB401B6428F5D90320FFE1F821F1
:101EE8008E4802F0DFFCC0E7FD218C4802F0DAFCE6
:101EF800C7E7894B5B6813F4800FCED0864B1B680D
:101F080013F4003F03D06368002B00F0E5812368D9
:101F180013F0020F67D0E368012B41D823691F2B08
:101F280044D87D4B9B6813F00C0F4AD07A4B9B68C2
:101F380003F00C03082B3FD0E368002B77D0784BD5
:101F480001221A60FEF70EFB0546734B1B6813F05F
:101F5800020F63D1FEF706FB401B0228F5D90320C8
:101F6800BDE16D4A136843F480331360A5E76A4BFB
:101F78001A6842F480221A601A6842F480321A60A1
:101F88009BE7FEF7EFFA0546634B1B6813F4003F27
:101F9800BDD0FEF7E7FA401B6428F5D903209EE17F
:101FA80040F22F115D4802F07DFCB7E74FF49871BD
:101FB8005A4802F077FCB4E7574B5B6813F4800F7C
:101FC800BAD1554B1B6813F0020F04D0E368012BFC
:101FD80001D0012083E1504A136823F0F8032169F6
:101FE80043EAC1031360236813F0080F49D06369FB
:101FF800012B2ED8636993B34A4B01221A60FEF76E
:10200800B1FA0546444B5B6F13F0020F39D1FEF766
:10201800A9FA401B0228F5D9032060E13E4A13685B
:1020280023F0F803216943EAC1031360DBE73C4B63
:1020380000221A60FEF796FA0546374B1B6813F024
:10204800020FD0D0FEF78EFA401B0228F5D90320E4
:1020580045E14FF4B871314802F024FCCAE7314B2E
:1020680000221A60FEF77EFA05462B4B5B6F13F0D1
:10207800020F06D0FEF776FA401B0228F5D9032096
:102088002DE1236813F0040F00F08780A368012B6B
:1020980001D9052B38D1204B1B6C13F0805F39D147
:1020A800002301931C4B1A6C42F080521A641B6C7B
:1020B80003F080530193019B01251B4B1B6813F40C
:1020C800807F33D0A368012B44D0052B48D0124B16
:1020D8001A6F22F001021A671A6F22F004021A67B7
:1020E800A368002B46D0FEF73DFA06460A4B1B6F45
:1020F80013F0020F4FD1FEF735FA801B41F28833F7
:102108009842F3D90320EAE04FF4CE71034802F075
:10211800C9FBC0E70025D0E700380240E0500008BE
:1021280000004742800E4742007000406E4A136824
:1021380043F480731360FEF715FA06466A4B1B6872
:1021480013F4807FBED1FEF70DFA801B0228F5D963
:102158000320C4E0654A136F43F001031367BFE728
:10216800624B1A6F42F004021A671A6F42F00102BA
:102178001A67B5E7FEF7F6F906465C4B1B6F13F0D6
:10218800020F08D0FEF7EEF9801B41F2883398421F
:10219800F3D90320A3E0002D3AD1A369022B3DD83F
:1021A800A369002B00F09A80504A926802F00C0252
:1021B800082A00F09680022B78D1E36913B1B3F5B1
:1021C800800F31D1236A3F2B34D8636AC03BF02B90
:1021D80036D8A36A022B05D0042B03D0062B01D0D6
:1021E800082B33D1E36A023B0D2B35D8404B002234
:1021F8001A60FEF7B7F905463C4B1B6813F0007FE1
:1022080030D0FEF7AFF9401B0228F5D9032066E06D
:10221800364A136C23F080531364BEE740F2DF1193
:10222800344802F03FFBBBE74FF4F471314802F049
:1022380039FBC7E740F2E9112E4802F033FBC4E747
:102248004FF4F5712B4802F02DFBC2E740F2EB1179
:10225800284802F027FBC5E74FF4F671254802F03D
:1022680021FBC3E7E369226A1343626A43EA8213E4
:10227800A26A5208013A43EA0243E26A43EA026365
:102288001A4A53601A4B01221A60FEF76BF904468A
:10229800164B1B6813F0007F06D1FEF763F9001B8D
:1022A8000228F5D903201AE0002018E0104B00227C
:1022B8001A60FEF757F904460C4B1B6813F0007FB1
:1022C80006D0FEF74FF9001B0228F5D9032006E0D7
:1022D800002004E001207047012000E0002002B047
:1022E80070BD0120FBE700BF0070004000380240CD
:1022F80060004742E0500008324B9B6803F00C0333
:10230800042B5CD0082B01D02F4870472DE9F04BE7
:102318002C4B5A6802F03F025B6813F4800F2BD0F5
:10232800284B5B68C3F388131E4600275C01002511
:10233800E41A65EB0705A90141EA9461A001001BB5
:1023480061EB0501CB0043EA5073C400A01943EBCD
:1023580007014B0243EAD0534402204619460023A2
:10236800FDF736FF174B5B68C3F3014301335B008E
:10237800B0FBF3F0BDE8F08B124B5B68C3F3881336
:102388001E4600275C010025E41A65EB0705A90134
:1023980041EA9461A001001B61EB0501CB0043EA0F
:1023A8005073C400A01943EB07018B0243EA905312
:1023B8008402204619460023FDF70AFFD2E70348A6
:1023C800704700BF003802400024F40000127A0071
:1023D800002800F0F98070B504460D460368013BFB
:1023E8000E2B11D8072D15D8794B1B6803F00F0356
:1023F800AB4215D2EBB2764A1370136803F00F03A1
:10240800AB420DD0012070BD4FF41471714802F039
:1024180049FAE7E740F251216E4802F043FAE3E750
:10242800236813F0020F29D013F0040F04D06A4A6E
:10243800936843F4E0539360236813F0080F04D0C3
:10244800654A936843F460439360A3687BB1802B2B
:102458000DD0902B0BD0A02B09D0B02B07D0C02BC0
:1024680005D0D02B03D0E02B01D0F02B33D15A4A22
:10247800936823F0F003A1680B439360236813F07B
:10248800010F42D06368032B2BD86368012B2ED031
:102498009A1E012A32D9504A126812F0020F00F02F
:1024A80095804D498A6822F0030213438B60FEF73A
:1024B80059F80646484B9B6803F00C036268B3EB77
:1024C800820F22D0FEF74EF8801B41F288339842E3
:1024D800F0D9032097E74FF41D713E4802F0E2F966
:1024E800C5E740F27B213B4802F0DCF9CDE73A4AE8
:1024F800126812F4003FD4D1012084E7364A1268EA
:1025080012F0007FCDD101207DE7314B1B6803F02D
:102518000F03AB4209D9EAB22D4B1A701B6803F0BE
:102528000F03AB4201D001206DE7236813F0040FBD
:1025380014D0E3685BB1B3F5805F08D0B3F5A05F52
:1025480005D0B3F5C05F02D0B3F5E05F30D1224AC1
:10255800936823F4E053E1680B439360236813F016
:10256800080F15D023695BB1B3F5805F08D0B3F5C8
:10257800A05F05D0B3F5C05F02D0B3F5E05F1DD111
:10258800154A936823F46043216943EAC1039360C1
:10259800FFF7B2FE104B9B68C3F303130F4AD35CDB
:1025A800D8400F4B18600020FDF792FF00202AE763
:1025B80040F2B921074802F075F9C8E74FF43071C5
:1025C800044802F06FF9DBE70120704701201AE7A1
:1025D800003C0240E050000800380240A84F0008C4
:1025E80038000020014B1868704700BF38000020F1
:1025F80008B5FFF7F7FF044B9B68C3F38223034A30
:10260800D35CD84008BD00BF00380240B84F00086E
:1026180030B583B004460368013B0E2B21D82368EC
:1026280013F0050F51D0E368023B052B1FD8A368B0
:10263800C03BF02B21D86368023B3D2B23D8A04B2D
:1026480000221A60FDF78EFF05469E4B1B6813F0AB
:10265800006F1ED0FDF786FF401B0228F5D9032026
:102668000DE140F6DD11984802F01CF9D7E740F675
:10267800E411954802F016F9D9E740F6E5119248B9
:1026880002F010F9D7E740F6E7118F4802F00AF98F
:10269800D5E76368A26843EA8213E26843EA0273F3
:1026A800884AC2F88430864B01221A60FDF75AFF27
:1026B8000546844B1B6813F0006F06D1FDF752FFE7
:1026C800401B0228F5D90320D9E0236813F0020F34
:1026D80000F0CD802369B3F5807F7ED0B3F5007F0D
:1026E8007BD07A4A934278D002F58032934274D0F4
:1026F80002F58032934270D002F5803293426CD05A
:1027080002F58032934268D002F58032934264D059
:1027180002F58032934260D002F5803293425CD059
:1027280002F58032934258D002F58032934254D059
:1027380002F58032934250D002F5803293424CD059
:1027480002F58032934248D002F58032934244D059
:1027580002F58032934240D002F5803293423CD059
:1027680002F58032934238D002F58032934234D059
:1027780002F58032934230D002F5803293422CD059
:1027880002F58032934228D002F58032934224D059
:1027980002F58032934220D002F5803293421CD059
:1027A80002F58032934218D002F58032934214D059
:1027B80002F58032934210D002F5803293420CD059
:1027C80002F58032934208D002F58032934204D059
:1027D80040F616213C4802F065F800230193394B76
:1027E8001A6C42F080521A641B6C03F080530193F8
:1027F800019B374A136843F480731360FDF7B2FEF8
:102808000546334B1B6813F4807F06D1FDF7AAFEFB
:10281800401B0228F5D9032031E02A4B1B6F13F423
:10282800407312D0226902F440729A420DD0254BAF
:102838001A6F22F4407227490120086000200860BE
:102848001A671B6F13F0010F1BD1236903F4407241
:10285800B2F5407F26D01B4A936823F4F81393609F
:1028680018490B6F2269C2F30B0213430B672368E5
:1028780013F0080F21D0227D174B1A60002003B0F7
:1028880030BDFDF76FFE05460E4B1B6F13F0020FB0
:10289800DBD1FDF767FE401B41F288339842F3D93C
:1028A8000320ECE707498A6822F4F81223F0704302
:1028B80023F4407313438B60D2E70020DFE700BFA7
:1028C800680047420038024018510008000302001F
:1028D80000700040400E4742E011474201282CD1C9
:1028E800184B9B6813F4000303D0012B27D116481B
:1028F8007047144B5B6813F4800F15D0114BD3F855
:10290800843003F03F031148B0FBF3F00D4AD2F8CE
:102918008430C3F3881300FB03F0D2F88430C3F388
:102928000273B0FBF3F07047064BD3F8843003F022
:102938003F030748B0FBF3F0E8E7002070470020AA
:10294800704700BF003802400080BB0000127A00C8
:102958000024F400002800F0C88010B5044603687D
:10296800634A934214D0A2F57842934210D002F5FC
:10297800806293420CD002F57842934208D002F567
:10298800E052934204D04FF487715A4801F08AFF0D
:10299800636813B1B3F5827F6BD1A3682BB1B3F52C
:1029A800806F02D0B3F5004F69D1E368B3F5006FCB
:1029B80001D0002B69D1A369B3F5007F03D013B10F
:1029C800B3F5802F67D1E3696BB1082B0BD0102BBF
:1029D80009D0182B07D0202B05D0282B03D0302B5B
:1029E80001D0382B5DD1236A0BB1802B5FD1636A8C
:1029F8000BB1102B61D1636A33B923690BB1022B78
:102A080061D16369012B64D80023A36294F8513023
:102A1800002B64D0022384F851302268136823F015
:102A2800400313606368A2681343E2681343226992
:102A3800134362691343A26902F400721343E26903
:102A48001343226A1343A16A22680B431360638B02
:102A580003F00403616A22680B4353602268D36958
:102A680023F40063D36100206065012384F85130AA
:102A780010BD40F20F111F4801F014FF8DE74FF40D
:102A880088711C4801F00EFF8FE740F211111948B8
:102A980001F008FF8FE74FF48971164801F002FF33
:102AA80091E740F21311134801F0FCFE9BE74FF445
:102AB8008A71104801F0F6FE99E740F215110D48A9
:102AC80001F0F0FE97E74FF48C710A4801F0EAFE36
:102AD80097E740F21911074801F0E4FE94E784F8FB
:102AE8005030204601F004FF94E70120704700BFF2
:102AF800003001405451000884B010B5044603A8C2
:102B080080E80E00089B012B20D1A36B23F48033AF
:102B1800A363E36823F4840323F04003E360E368DA
:102B280023F44013E3600F9B012B0AD0204600F0EA
:102B380099F8069B012B14D00020BDE8104004B082
:102B48007047E36843F48013E360EFE7E36843F01A
:102B58004003E360204600F085F84FF48033A36318
:102B6800E7E7A36843F00603A360A36843F02003E4
:102B7800A360E1E7836843F00103836000207047A6
:102B8800836823F0010383600020704708B5C36899
:102B980023F0C043C360012909D019B9C36843F0C1
:102BA8008043C3603220FDF7E3FC002008BDC36802
:102BB80043F00053C360F5E7890141F0200101614A
:102BC80000230133054A934205D8026912F0200F09
:102BD800F7D1002070470320704700BF400D030065
:102BE8001023036100230133054A934205D8026983
:102BF80012F0100FF7D1002070470320704700BF74
:102C0800400D030070B49DF80C4064B903339D086F
:102C180007E000EB023303F5805351F8046B1E60A4
:102C28000134AC42F5D3002070BC704703329208DF
:102C3800002393420CD210B400F58054246841F864
:102C4800044B01339342F7D308465DF8044B7047B1
:102C5800084670474269806910407047406900F033
:102C680001007047002301330C4A934211D80269CE
:102C7800002AF8DA036943F00103036100230133F2
:102C8800064A934207D8026912F0010FF7D10020D3
:102C98007047032070470320704700BF400D0300B2
:102CA80084B038B5044605A880E80E002546002300
:102CB800C4F8003EA36B23F48023A363A36B23F41F
:102CC8000023A363A36B43F40013A363079B032BA5
:102CD8000ED0D4F8003423F00403C4F800341021D3
:102CE8002046FFF769FF2046FFF77AFF002213E02E
:102CF800B4F1A04FEDD0D4F8003443F00403C4F885
:102D08000034ECE705EB42134FF0FF31C3F8081528
:102D18000021C3F80C150132069B9342F2D8012119
:102D2800204600F06DF8C820FDF722FC0023A361BF
:102D38004FF0FF336361B4F1A04F17D04FF4007325
:102D4800636203F18073A3620D4BC4F80031089BE2
:102D58001BB9A36943F01003A361A269094B13438C
:102D6800A3610020BDE8384004B070478023636247
:102D780003F5C003A362044BC4F80031E7E700BFC2
:102D88000003E000080020A3E000400010B400F5B4
:102D98008064D0F8003423F00303C0F80034D0F87E
:102DA800003401F003021343C0F80034012905D0B0
:102DB800022907D000205DF8044B70474BF680339A
:102DC8006360F7E741F270736360F3E710B582B0B0
:102DD8000446D0F840340193019B23F02E0301935D
:102DE800019B43F48073C0F840340A20FDF7C0FB10
:102DF800019B23F48073C4F84034002002B010BD56
:102E080082B0D0F840340193019B23F02E03019344
:102E1800019B13F4805F01D101290CD0019B13F4AD
:102E2800805F05D021B9019B23F48053C0F840345A
:102E3800002002B07047019B43F48053C0F840342F
:102E4800ECE782B0D0F8403401930198C0F34140D8
:102E580002B0704700F58060806880B27047F0B4B7
:102E68009DF8144000EB411505F5A0664FF0FF37BB
:102E7800B760032C1CD8DFE804F0024D021540F2BD
:102E88009D47F76012F0800F07D1B0F1A04F0FD027
:102E9800F76847F06007F7600AE0F76847F480775B
:102EA800F76005E040F29D67F76012F0800F2CD1C3
:102EB800D0F81864012707FA01F13143C0F8181453
:102EC800816941F0007181619B0503F0FE53D102D5
:102ED80001F4F0410B4352B202F4004213439DF84F
:102EE8001020022A21D000221343A20402F4402217
:102EF8001343BDF81820C2F30A021343C5F800357E
:102F0800032C15D00020F0BC7047F76847F4807791
:102F1800F760CDE740F22527F76012F0800FC7D0A1
:102F2800F76847F4C077F760C2E74FF40032DBE791
:102F3800D5F8003543F00053C5F80035E2E7000046
:102F480080B58AB002AFF860B9601346FB71002300
:102F58007B7700237B830023FB834FF480733B83C1
:102F680000237B61FB68B3F1A04F2AD0BB681B79B3
:102F7800002B26D1FB79002B0BD1BB685B79012B89
:102F880007D1BB685B781946F86800F003FA00239C
:102F980009E1FB79012B14D1BB685B785A01FB6806
:102FA800134403F5A063DB68BA6852785101FA68E4
:102FB8000A4402F5A06223F06003D360BB680022D4
:102FC8005A71BB681B69002B19D0BB681B69BA68AA
:102FD80012891344013BBA681289B3FBF2F3FB83ED
:102FE800FA8B3B8B9A420CD93B8BFB83FB8BBA68E1
:102FF800128902FB03F31A46BB681A6101E0012338
:10300800FB83BB68DB78002B07D0FB8BBA6812897F
:1030180002FB03F31A46BB681A61BB681B69C3F35A
:103028001202FB8BDB041946614B0B401A43BB6849
:103038009B7A5B0703F0C043B96849784801F9688F
:10304800014401F5A06113430B61FB79002B0AD001
:10305800BB68D968BB685B785A01FB68134403F501
:10306800A0630A465A61FB6803F580639B6803F016
:103078000103002B0CBF01230023DBB27B77BB6865
:103088005B785A01FB68134403F5A0631B68BA68B0
:1030980052785101FA680A4402F5A06223F00053FD
:1030A8001360BB685B785A01FB68134403F5A0639F
:1030B8001B687A7F52071046BA6852785101FA683D
:1030C8000A4402F5A06203431360BB685B785A01A7
:1030D800FB68134403F5A0631B687B617B6923F0DD
:1030E80080437B617B6943F000437B61BB685B780D
:1030F8005A01FB68134403F5A0631A467B69136001
:10310800FB79002B4ED1BB68DB78002B4AD1BB681A
:103118001B69002B46D0BB68DB79032B30D801A292
:1031280052F823F03D310008613100083D310008B4
:1031380061310008BB681B6903339B087B837A8B6A
:10314800FB68DB6A9BB29A421CD9FB689B6943F017
:103158002002FB689A6115E0BB681B6903339B0872
:103168007B837A8BFB6803F580631B699BB29A4269
:103178000AD9FB689B6943F08062FB689A6103E0A7
:1031880000BF02E000BF00E000BFBB68D968BB68B1
:103198005A78BB681B6998B2002300930346F86805
:1031A800FFF730FD002318462037BD4680BD00BF1D
:1031B8000000F81F80B483B000AF78607B6803F527
:1031C80080635B699BB218460C37BD465DF8047B8B
:1031D800704780B485B000AF78600B46FB70002361
:1031E800FB60FB785A017B68134403F5A0631B68F6
:1031F8009B0C03F00303002B0BD0FB785A017B6870
:10320800134403F5A0631B689B0C03F00303022B14
:103218005CD1FB785A017B68134403F5A0631B68F3
:10322800FA7851017A680A4402F5A06243F08043B3
:1032380013607B68DB6A03F47F03002B33D1FB78D0
:103248005A017B68134403F5A0631B68FA7851019F
:103258007A680A4402F5A06223F000431360FB7801
:103268005A017B68134403F5A0631B68FA7851017F
:103278007A680A4402F5A06243F000431360FB68D1
:103288000133FB60FB68B3F57A7F1DD8FB785A01E0
:103298007B68134403F5A0631B6803F00043B3F194
:1032A800004FECD06FE0FB785A017B68134403F5BC
:1032B800A0631B68FA7851017A680A4402F5A06293
:1032C80043F0004313605EE000BF5CE0FB785A0106
:1032D8007B68134403F5A0631B68FA7851017A6888
:1032E8000A4402F5A06243F0804313607B6803F54B
:1032F80080631B699BB2002B33D1FB785A017B6832
:10330800134403F5A0631B68FA7851017A680A44EC
:1033180002F5A06223F000431360FB785A017B6832
:10332800134403F5A0631B68FA7851017A680A44CC
:1033380002F5A06243F000431360FB680133FB60B1
:10334800FB68B3F57A7F1DD8FB785A017B68134474
:1033580003F5A0631B6803F00043B3F1004FECD002
:1033680011E0FB785A017B68134403F5A0631B68DE
:10337800FA7851017A680A4402F5A06243F00043E2
:10338800136000E000BF002318461437BD465DF8FF
:10339800047B704780B485B000AF78600B46FB7043
:1033A8000123FB730023BB60FB7BDB041A46154B30
:1033B8001340FA7851017A680A4402F5A06243F092
:1033C80000431361FB785A017B68134403F5A0633B
:1033D8001B68BB60BB6823F08043BB60BB6843F0DD
:1033E8000043BB60FB785A017B68134403F5A06374
:1033F8001A46BB681360002318461437BD465DF8AB
:10340800047B70470000F81F80B586B000AF786075
:1034180000233B617868FFF7B3FB10217868FFF75A
:10342800CBFB7868FFF7DCFB0023FB751FE0FB7D17
:103438005A017B68134403F5A0631B68FB60FB68B3
:1034480043F08043FB60FB6823F00043FB60FB68AC
:1034580023F40043FB60FB7D5A017B68134403F5AA
:10346800A0631A46FB681360FB7D0133FB75FB7D87
:103478000F2BDCD90023FB7534E0FB7D5A017B68F8
:10348800134403F5A0631B68FB60FB6843F08043AB
:10349800FB60FB6843F00043FB60FB6823F40043D8
:1034A800FB60FB7D5A017B68134403F5A0631A4651
:1034B800FB6813603B6901333B613B69B3F57A7F75
:1034C8000CD8FB7D5A017B68134403F5A0631B6885
:1034D80003F00043B3F1004FECD000E000BFFB7DE8
:1034E8000133FB75FB7D0F2BC7D97B6803F5806320
:1034F8001A464FF0FF3353617B684FF0FF325A6131
:103508007868FFF737FB002318461837BD4680BD9B
:103518000020704708B5212202742022427400223C
:10352800428282820722C28200F0F5FD08BD08B5FA
:10353800A12202742122427400224282828207223E
:10354800C28200F0E8FD08BD38B50446D0F87433EF
:10355800D9694031FFF7EBFF054620B9D4F8C433E9
:10356800022120469847284638BD38B50546D0F888
:103578007433DC69217879B9217BB1B9617BF1B900
:10358800D5F87433D86928B101F02EFCD5F8743316
:103598000022DA61002038BD00F0F9FE21782846C3
:1035A80000F00CFF00232370E6E7284600F0EFFE4A
:1035B800217B284600F002FF00232373DEE728461C
:1035C80000F0E5FE617B284600F0F8FE00236373F7
:1035D800D6E770B584B0044601230222114600F0F4
:1035E800A2FAFF2800F0A18006460146204600F016
:1035F80090FAD4F87453502001F0EEFBE861D4F847
:103608007433DD691A2303FB064393F8483313F038
:10361800800F72D16978204600F0BEFE01462870FE
:1036280094F81C336A78688902900320019094F812
:103638001D030090204600F09AFE002229782046BB
:1036480001F052FB00231A460A21204600F06BFACB
:10365800FF286CD01A2303FB004393F8483313F078
:10366800800F52D1AB731A2303FB0043B3F84A33DC
:103678002B831A2303FB004393F8503313F0800F76
:103688004BD1AB731A2303FB0040B0F852332B83A2
:10369800A97B204600F080FE6873E97B204600F095
:1036A8007BFE287394F81C33AA7B697B288B0290D5
:1036B8000226019694F81D030090204600F057FE5C
:1036C80094F81C33EA7B297B688B0290019694F866
:1036D8001D030090204600F04AFE002685F84C6045
:1036E8003246697B204601F0FFFA3246297B2046A4
:1036F80001F0FAFA304604B070BD6B701A2303FB70
:103708000646B6F84A336B8184E7EB731A2303FB4A
:103718000043B3F84A336B83ABE7EB731A2303FB1D
:103728000040B0F852336B83B2E70220E3E702208F
:10373800E1E7704730B583B00546D0F87433DC69EB
:1037480094F84D30012B03D0022B19D003B030BDB3
:10375800606A228B90420AD9637BE169012000905C
:10376800284600F0CBFD022384F84D30EEE7637B5A
:10377800E1690122009282B2284600F0BFFDF2E71B
:10378800617B01F09DFA012805D00228DED10123D2
:1037980084F84D30DAE7636A228B93420AD99B1A80
:1037A8006362E3691A44E261636A33B1012384F80E
:1037B8004D30CBE700236362F6E7002384F84D30F1
:1037C8002846FFF7B6FFC1E7704738B50546D0F879
:1037D8007433DC6994F84E30032B02D0042B09D0E3
:1037E80038BD237B628B216A00F09EFD042384F898
:1037F8004E30F5E7217B01F063FA0128F0D1217BF7
:10380800284601F015FA80B2A36A834202D0628B7F
:10381800824206D3002384F84E302846FFF7D4FFAF
:10382800DEE71B1AA362236A18442062032384F884
:103838004E30D5E7704738B50546D0F87433DC69A3
:1038480094F84C30042B04D8DFE803F04C05163C00
:103858004300012347E0A16CFFF75CFE034630B14B
:10386800012840D0042384F84C3001233BE0022394
:1038780084F84C30012336E004F14001FFF757FE8D
:103888000346C0B9002384F84C30636C23F07F42B0
:10389800A16C4B6823F07F439A4201D0012322E0B8
:1038A800226C0B689A4201D001231CE02846FFF7DE
:1038B800C1FF012317E0012815D0042384F84C30F8
:1038C800012310E0FFF736FF2846FFF77EFF0123AC
:1038D80009E0002100F0C9FC38B9002384F84C3015
:1038E800012300E00023184638BD0123FBE700232D
:1038F80006E003F1DE0200EB820200215160013391
:103908000E2BF6D9002304E0C218002182F81C11FE
:103918000133B3F5007FF7D300230370437001220E
:103928008270C0F8B833027640218171437680F8FE
:103938001C3380F81D231846704708B50378DBB29E
:103948000A2B00D008BDD0F87433002BFAD09B693D
:103958009847F7E770B584B004464378072B00F220
:10396800A480DFE803F0042C355E6770819208219B
:1039780000F00FFC18B10125284604B070BD94F87A
:103988002723A2710125657094F81C3321790292CE
:103998000026019694F81D2300928022204600F00C
:1039A800E6FC94F81C336179A2790292019694F8A6
:1039B8001D2300923246204600F0D9FCDCE7122194
:1039C80000F0E7FB002872D1022363700125D3E7DA
:1039D800012100F028FC08B10125CDE7022001F003
:1039E8009CF9012584F81C53032363702179A3797A
:1039F80002930026019694F81D3300932B468022EB
:103A0800204600F0B4FC94F81C336179A279029244
:103A1800019694F81D2300923246204600F0A7FC38
:103A2800AAE7092100F0CEFB002842D104236370E5
:103A38000125A1E7B0F8341300F0C4FBD8BB052377
:103A48006370012598E790F82E1319B9062343707F
:103A5800012591E7FF2300F58E7200F0CCFB60BBD7
:103A680006236370012587E790F82F1319B90723F8
:103A78004370012580E7FF2300F58E7200F0BBFB41
:103A8800E8B907236370012576E790F8301309B980
:103A9800002571E7FF2300F58E7200F0ACFB0546A8
:103AA80000283FF469AF012566E7012564E7012591
:103AB80062E7012560E701255EE701255CE701254E
:103AC8005AE798B138B504460D4680F8BC23002360
:103AD800C0F87433C0F87833FFF709FF0DB1C4F8A4
:103AE800C453204601F03EF8002038BD022070473C
:103AF8000A4651B1D0F878334BB9591CC0F878133D
:103B0800DC3340F823200020704702207047022051
:103B1800704790F836338B4203D980F81F13002082
:103B280070470220704770B400240AE01A2505FB8C
:103B3800060696F843539D4219D0FF2B17D001343F
:103B480064B2012C15DC26461A2505FB040595F8F8
:103B580041538D4201D0FF29F1D11A2505FB0605F5
:103B680095F842539542E1D0FF2AE8D1DEE7E0B26A
:103B780000E0FF2070BC704710B5044601F020F843
:103B88000121204601F0A2F8002010BD30B587B011
:103B9800044602238DF817300378DBB20A2B43D88A
:103BA800DFE803F0064213B0424598565F68A90063
:103BB80090F81E33002B37D001230370C82001F082
:103BC800ACF8204601F026F82EE0642001F0A5F8B4
:103BD800204601F011F884F81D0305232370002105
:103BE800204600F0D9FB60718021204600F0D4FB0C
:103BF8000146207194F81C33A279029200250195A0
:103C080094F81D2300928022204600F0B0FB94F81F
:103C18001C336179A2790292019594F81D230092D0
:103C28002A46204600F0A3FB002007B030BDFFF76E
:103C380091FE0028F8D1002384F81F3394F831331B
:103C4800012B02D007232370EEE708232370EBE74C
:103C5800D0F8C433002BE7D00121984708232370FC
:103C6800E2E790F8371300F0EFFA0028DCD10923D7
:103C78002370D9E7D0F87833002BD5D00023C0F8CB
:103C8800743373B1D4F874330BB39B6820469847E8
:103C9800D0B906232370D4F8C433032120469847AB
:103CA800C2E703F1DC0254F82220117994F8412389
:103CB800914202D00133DBB2E3E703F1DC0254F8AE
:103CC8002220C4F87423F5E70C232370ACE70C23F7
:103CD8002370A9E7D0F8743353B11B6998478DF85E
:103CE80017009DF81730002B9ED10A2323709BE7FD
:103CF8000C23037098E7D0F87433002B94D05B69D9
:103D0800984791E7FFF7F3FDD4F87433002B8BD075
:103D1800DB68204698470023C4F8743384E7C0F86A
:103D2800B813704708B5D0F8B8330133C0F8B833C2
:103D3800FFF703FE08BD08B503784BB9012380F8E7
:103D48001E33D0F8C4330BB104219847002008BDB6
:103D58000378DBB2012BF9D102230370F6E710B523
:103D6800044600F03BFF2179204600F027FB6179EB
:103D7800204600F023FB002384F81E33D4F8C43314
:103D880013B1052120469847204600F019FF032368
:103D98002370002010BD10B40B7803704B7843706B
:103DA8008B78CC7803EB042343800B7903714B7930
:103DB80043718B798371CB79C371082A16D90B7A31
:103DC8004A7A03EB022303818B7ACA7A03EB022334
:103DD80043810B7B4A7B03EB022383818B7B8373B9
:103DE800CB7BC3730B7C03744B7C43745DF8044B2F
:103DF80070470B7803704B7843708B788370CB785F
:103E0800C3700B7903714B7943718B798371CB79CB
:103E1800C3710B7A037270470B7803704B78437049
:103E28008B788370CB78C3700B794A7903EB0223C4
:103E380083808B79837170474378032B00D0704758
:103E48000378023B9A42A8BF1A4692B200239342D3
:103E58000DD210B4C418A47801F8014B02339BB2F8
:103E68009342F7D300230B705DF8044B704700238F
:103E78000B70704730B583B00446037E013B0A2BB4
:103E880000F2D880DFE803F00610354154627E8ADC
:103E98009DABC200427900F1100100F0F8F902234D
:103EA8002376012003B030BD417900F009FF0128D5
:103EB80003D0042819D00120F4E7237CE28A4AB110
:103EC80013F0800F03D1052323760120EAE70323AB
:103ED8002376E7E713F0800F03D107232376012029
:103EE800E0E7092323760120DCE70B232376012072
:103EF800D8E7D0F8B833C38103798289816800F0A4
:103F0800EDF9042323760120CCE7017900F0D8FEEF
:103F1800012806D0052800F08F80042804D001204D
:103F2800C0E709232376F5E70B2323760120B9E7B9
:103F38004379828901250095816800F0B9F9D4F8A0
:103F4800B833E381062323762846ABE7417900F0AE
:103F5800B7FE012807D0052808D002280AD004286F
:103F68000CD001209EE7072323769BE70C232376BA
:103F7800032097E705232376012093E70B23237675
:103F880002208FE703790022114600F0A7F9D4F840
:103F9800B833E38108232376012083E7017900F011
:103FA8008FFE012805D0042807D0052846D0012017
:103FB80078E70D232376002074E70B23237601206E
:103FC80070E74379012500950022114600F070F949
:103FD800D4F8B833E3810A232376284662E7417987
:103FE80000F06EFE012805D0022807D0042809D069
:103FF800012057E70D232376002053E70923237672
:1040080001204FE70B23237601204BE7437E013342
:10401800DBB24376022B07D9D0F8C4330621984780
:104028000023637602203DE700F0D8FD01202076CA
:10403800A07037E7012035E7032033E7032031E795
:1040480003780A8813440B800378184470472DE9D5
:10405800F04383B00C460B7803704B7843708B7831
:10406800C97803EB01234380237903716379437192
:10407800A3798371E379C371237A0372092A47D933
:1040880005460923ADF806300026012E40DC6A8873
:10409800BDF806309A423BD90DF106012046FFF7DC
:1040A800CFFF04464378042BEFD1B1461A2000FB1A
:1040B80006F00830284421460230FFF79AFE002710
:1040C800B8461A2303FB09539B7B9F421DDA6A8873
:1040D800BDF806309A4218D90DF106012046FFF7BF
:1040E800AFFF04464378052BEAD108F101081A20EE
:1040F80000FB09F000EBC8000830284421460430D2
:10410800FFF78AFE01377FB2DAE7013676B2BCE7FD
:1041180003B0BDE8F0838378012B03D0022B09D0CC
:10412800012305E0816082810123037602228270E7
:104138001846704710B50446FFF79CFE034620B1A9
:10414800022806D10122A27003E00122A2700022F7
:104158002276184610BD38B5BDF810508478012C69
:1041680004D02A461946FFF7D6FF38BD61F07F0410
:10417800047406214174428202F47F44B4F5407FFE
:1041880003D000228282C582EBE740F20942828294
:10419800F9E7F0B583B0044600F58E750E46009138
:1041A8002B464FF480720021FFF7D5FF074610B168
:1041B800384603B0F0BD3246294604F54870FFF78B
:1041C800EAFDF5E7F0B583B004460E4600F11C059C
:1041D80000912B464FF400720021FFF7BCFF074601
:1041E80010B1384603B0F0BD3246294604F23230E9
:1041F800FFF72DFFF5E7F0B583B017461D4600F52C
:104208008E740093234641F440720021FFF7A3FF08
:10421800064610B1304603B0F0BD2A46394620465E
:10422800FFF70AFEF6E708B58378012B04D00022D1
:104238001146FFF770FF08BD00230374052242747E
:1042480041828382C382F2E708B58378012B04D0C8
:1042580000221146FFF75FFF08BD002303740922FF
:10426800427441828382C382F2E708B58378012BC6
:1042780004D000221146FFF74EFF08BD0223037445
:1042880001234374002343828182C382F1E730B55E
:1042980085B01546002403940823029301910094E5
:1042A80023462246294600F0F0FC204605B030BDE2
:1042B80030B585B00C4619469DF8203090F81D534E
:1042C80005B1002303930292019401230093002374
:1042D8001A4600F0DAFC002005B030BD30B585B0D4
:1042E8001D46002403940292019101220092234664
:1042F800294600F0CAFC204605B030BD30B585B06F
:104308000C4619469DF8203090F81D5305B100233E
:10431800039302920194012300930223002200F0E8
:10432800B4FC002005B030BD30B585B01D46002472
:10433800039402920191012200920223294600F07F
:10434800A4FC204605B030BD00230A2B0CD803F18D
:10435800DE0200EB8202526812F4004F02D00133F1
:10436800DBB2F2E798B270474FF6FF70704710B5AE
:1043780084B0BDF8204002949DF81C4001949DF83B
:104388001840009400F05AFC002004B010BD08B595
:1043980000F06DFC002008BD38B504460D46FFF757
:1043A800D3FF4FF6FF73984206D045F4004500F15D
:1043B800DE0304EB83046560C0B238BD0A2906D861
:1043C800DE3100EB81014B68C3F30E034B60002024
:1043D800704700002DE9F0418CB0002401944C4B4B
:1043E8001A6B42F010021A631A6B02F01002019263
:1043F800019A02941A6B42F004021A631A6B02F0D3
:1044080004020292029A03941A6B42F080021A6321
:104418001A6B02F080020392039A04941A6B42F01A
:1044280001021A631A6B02F001020492049A0594BD
:104438001A6B42F002021A631A6B02F0020205922A
:10444800059A06941A6B42F008021A631B6B03F074
:1044580008030693069B2F4E224608213046FCF798
:10446800A9FADFF8C480012211464046FCF7A2FAF7
:10447800294F22464FF210013846FCF79BFA0423D5
:1044880007930894099407A93046FCF739F90823DB
:1044980007930125089509940A9407A93046FCF763
:1044A8002FF9322307931D4B0893099407A9304627
:1044B800FCF726F90795089509940A9407A9404638
:1044C800FCF71EF90795164B0893099407A9154898
:1044D800FCF716F94FF210030793089509940A940C
:1044E80007A93846FCF70CF9202307930894099488
:1044F80007A93846FCF704F9224621460620FCF7AE
:1045080069F80620FCF7ACF80CB0BDE8F08100BFF4
:104518000038024000100240000C02400000121057
:1045280000001110000002400008024008B50C48C5
:104538000C4B03600C4B436000238360C3604FF453
:104548008042026143618361C3610362FCF7F2FF49
:1045580000B908BD4C21054800F0F4F8F9E700BFA0
:10456800D400002000540040A086010090510008AB
:104578000268114B9A4200D0704710B586B04FF4CC
:1045880010730193122302930123039300240494CC
:10459800042305930DEB03010848FCF7B1F80094D8
:1045A800074B1A6C42F400121A641B6C03F40013D4
:1045B8000093009B06B010BD005400400004024068
:1045C8000038024008B50C480C4B03604FF40073E8
:1045D800436000238360C3600361094A42618361C9
:1045E800C36101230362FDF7DDF800B908BD4D2161
:1045F800044800F0A7F8F9E7280100200038004037
:1046080000770100A051000808B50C480C4B036066
:104618004FF40072426000238360C3600261094A5C
:1046280042618361C3610362FDF7BCF800B908BD4C
:104638006021054800F086F8F9E700BF7001002006
:10464800003C004000770100A0510008F0B589B097
:1046580003682E4A934204D02D4A934231D009B0C0
:10466800F0BD002401942B4B1A6C42F480421A646A
:104678001B6C03F480430193019B042303930225DD
:1046880004950594069406230793234F03A93846F7
:10469800FCF736F808230393049505940694052639
:1046A800079603A93846FCF72BF84FF4A053039359
:1046B800049505940694079603A91848FCF720F872
:1046C800CDE700240294134B1A6C42F400421A649A
:1046D8001B6C03F400430293029B102303930226EE
:1046E8000496059406940625079503A90C48FCF73B
:1046F80007F84FF4A453039304960594069407957A
:1047080003A90548FBF7FCFFA9E700BF00380040F4
:10471800003C00400038024000080240000402400B
:1047280000000240064B1B68012B03D0044B0122FA
:104738001A607047024A5368013B1360704700BF14
:1047480028000020FEE7000000B59BB00021019181
:10475800324B1A6C42F080521A641B6C03F080537F
:104768000193019B02912E4B1A6842F440421A6051
:104778001B6803F440430293029B01230E934FF4FA
:1047880080330F93022314934FF48003159304236B
:104798001693C02217921893082319930EA8FDF7B1
:1047A8005BFB70BB0F23099302230A9300230B932F
:1047B8004FF4A0520C920D93032109A8FDF708FEAF
:1047C80018BB01230393C8230593052304930223ED
:1047D800069303A8FDF71CFFD8B9FDF703FF114B9B
:1047E800A3FB00308009FBF751FF0420FBF764FFAF
:1047F800002211464FF0FF30FBF7ECFE1BB05DF8CE
:1048080004FBBE210848FFF79DFFCC210648FFF7AF
:1048180099FFD5210448FFF795FF00BF00380240F3
:1048280000700040D34D6210B051000808B5FBF786
:1048380073FEFFF789FFFFF7CDFDFFF777FEFFF760
:10484800C1FEFFF7E1FE00F02FF800F01BF9124D52
:10485800124C236805EB4303114E01221989304697
:10486800FCF7A8F8C820FBF783FE236805EB430391
:10487800002219893046FCF79DF80A20FBF778FEDC
:104888002B68226813446968B3FBF1F201FB123309
:10489800236000F00DF9DAE728000020BC000020B2
:1048A800000C02407047000008B50E480E4B03602C
:1048B8004FF48273436000238360C36003614361E4
:1048C8004FF400728261C3610362436283620A2308
:1048D800C362FEF73FF800B908BD4F210348FFF750
:1048E80031FFF9E7B801002000300140C05100084D
:1048F8000268114B9A4200D0704700B587B000217A
:10490800009103F584335A6C42F480525A645B6C0C
:1049180003F480530093009BE02301930223029346
:104928000391032304930523059301A90348FBF787
:10493800E7FE07B05DF804FB0030014000000240CC
:1049480010B582B000240094214B5A6C42F4804286
:104958005A645A6C02F480420092009A01941A6CCC
:1049680042F080521A641B6C03F080530193019B40
:104978000720FBF711FE224621466FF00B00FBF7DC
:1049880029FE224621466FF00A00FBF723FE224645
:1049980021466FF00900FBF71DFE224621466FF005
:1049A8000400FBF717FE224621466FF00300FBF7D1
:1049B80011FE224621466FF00100FBF70BFE22464E
:1049C80021464FF0FF30FBF705FE02B010BD00BFD7
:1049D800003802407047FEE7FEE7FEE7FEE7704753
:1049E8007047704708B5FBF7B1FDFBF784FE08BDBB
:1049F80008B50120FBF7FAFF08BD000008B502481A
:104A0800FCF7B3FC08BD00BFD80500200F49D1F85A
:104A1800883043F47003C1F888300D4B1A6842F0AF
:104A280001021A60002098601A6822F0847222F449
:104A380080321A60074A5A601A6822F480221A6083
:104A4800D8604FF000638B60704700BF00ED00E056
:104A5800003802401030002404290CD0052902D067
:104A6800022904D07047064B03221A707047044B82
:104A780002221A707047024B01221A70F2E700BF37
:104A8800C000002010B5074C012207492046FFF757
:104A980018F806492046FFF72BF82046FFF76CF870
:104AA80010BD00BF10020020614A00080800002065
:104AB80008B50248FFF76AF808BD00BF10020020D9
:104AC8000368B3F1A04F00D0704730B587B04FF4FA
:104AD80000730193002402940394164D01A92846FB
:104AE800FBF70EFE4FF4E053019302230293039465
:104AF800032304930A23059301A92846FBF700FE24
:104B08000D4B5A6B42F080025A6300945A6C42F47F
:104B180080425A645B6C03F480430093009B2246F6
:104B280021464320FBF756FD4320FBF799FD07B0CC
:104B380030BD00BF000002400038024008B5D0F880
:104B48009402FFF7EFF808BD08B5D0F89402FFF714
:104B5800F2F808BD08B5D0F89402FFF700F908BDCF
:104B68007047000090F8BC33012B01D0002070473B
:104B780010B504461048C0F89442C4F8C0034FF07A
:104B8800A0430360082383600323C36000230361F9
:104B980002228261C361FBF7C1FF40B90648FCF7F6
:104BA800BFFC01462046FFF7BAF8002010BDE221FD
:104BB8000248FFF7C7FDF1E7D8050020D0510008EB
:104BC80008B5D0F8C003FCF771FC18B1022803D06F
:104BD800022008BD0020FCE70120FAE708B5D0F85C
:104BE800C003FCF779FC18B1022803D0022008BDE5
:104BF8000020FCE70120FAE708B5D0F8C003FCF76D
:104C080094FC18B1022803D0012008BD0020FCE75D
:104C18000220FAE708B5D0F8C003FCF76FFC18B11A
:104C2800022803D0022008BD0020FCE70120FAE793
:104C380008B5D0F8C003FCF76DFC08BD10B584B00A
:104C4800D0F8C003BDF8204002949DF81C400194A0
:104C58009DF818400094FBF715FF20B1022804D0F6
:104C6800022004B010BD0020FBE70120F9E708B5D9
:104C7800D0F8C003FBF73FFF18B1022803D0022089
:104C880008BD0020FCE70120FAE710B584B0D0F891
:104C9800C0039DF824400394BDF820400294079C6B
:104CA80001949DF818400094FBF780FF20B102287A
:104CB80004D0022004B010BD0020FBE70120F9E772
:104CC80008B5D0F8C003FCF71EFC08BD08B590F87D
:104CD800BC33012B04D0C820FBF74AFC002008BDD8
:104CE800084600F01FF8F6E710B4D0F8C03301EB1F
:104CF8008104E0000446184490F83B0048B901EBF1
:104D08008101C800034483F8512000205DF8044B5A
:104D18007047234483F85020F7E708B5FBF728FCD1
:104D280008BD000008B528B1002201210248FBF7A0
:104D380041FE08BD0122F8E700080240DFF834D040
:104D4800002103E00C4B5B58435004310B480C4BDB
:104D580042189A42F6D30B4A02E0002342F8043B79
:104D6800094B9A42F9D3FFF751FE00F011F8FFF70B
:104D78005DFD704700000220F4510008000000208B
:104D8800A0000020A000002074080020FEE700001A
:104D980070B50D4E0D4CA41BA4100025A54209D1D9
:104DA8000B4E0C4C00F0F0F8A41BA4100025A542F3
:104DB80005D170BD56F8253098470135EEE756F80D
:104DC800253098470135F2E7EC510008EC5100080E
:104DD800EC510008F0510008024B0146186800F039
:104DE80059B800BF3C000020024B0146186800F08B
:104DF80003B800BF3C00002038B50546002945D05F
:104E080051F8043C0C1F002BB8BFE41800F0ACF8B4
:104E18001F4A1368104633B9636014602846BDE81A
:104E2800384000F0A2B8A3420CD921686218934216
:104E380004BF1A685B68636004BF5218226004608C
:104E4800ECE713465A680AB1A242FAD91968581809
:104E5800A0420BD120680144581882421960DDD164
:104E6800106852685A6001441960D7E702D90C23C8
:104E78002B60D3E7206821188A4204BF1168526862
:104E8800626004BF091821605C60C7E738BD00BFD5
:104E9800C400002070B5CD1C25F0030508350C2D85
:104EA80038BF0C25002D064601DBA94203D90C2387
:104EB8003360002070BD00F057F8214A146821467D
:104EC80091B9204C23681BB9304600F03DF82060AA
:104ED8002946304600F038F8431C24D10C233360AF
:104EE800304600F042F8E4E70B685B1B18D40B2B44
:104EF8000FD90B60CD50CC18304600F036F804F1CD
:104F08000B00231D20F00700C31AD3D05A42E250E9
:104F1800D0E78C424B6816BF636013600C46EBE722
:104F28000C464968CCE7C41C24F00304A04205D011
:104F3800211A304600F008F80130CFD02560DBE7B1
:104F4800C4000020C800002038B5064C00230546E0
:104F58000846236000F00AF8431C02D1236803B115
:104F68002B6038BD7008002070477047044A054917
:104F78001368002B08BF0B4618441060184670478A
:104F8800CC00002078080020F8B500BFF8BC08BCA9
:104F98009E467047F8B500BFF8BC08BC9E467047EF
:104FA80000000000000000000102030406070809D1
:104FB80000000000010203042E2E2F44726976655A
:104FC80072732F53544D3332463478785F48414CCE
:104FD8005F4472697665722F5372632F73746D33F1
:104FE80032663478785F68616C5F636F7274657875
:104FF8002E6300002E2E2F447269766572732F532C
:10500800544D3332463478785F48414C5F44726976
:105018007665722F5372632F73746D3332663478EA
:10502800785F68616C5F6770696F2E6300000000CD
:105038002E2E2F447269766572732F53544D333276
:10504800463478785F48414C5F4472697665722FC0
:105058005372632F73746D3332663478785F686186
:105068006C5F6863642E63002E2E2F447269766528
:1050780072732F53544D3332463478785F48414C1D
:105088005F4472697665722F5372632F73746D3340
:1050980032663478785F68616C5F6932632E6300CA
:1050A8002E2E2F447269766572732F53544D333206
:1050B800463478785F48414C5F4472697665722F50
:1050C8005372632F73746D3332663478785F686116
:1050D8006C5F6932732E63002E2E2F4472697665D9
:1050E80072732F53544D3332463478785F48414CAD
:1050F8005F4472697665722F5372632F73746D33D0
:1051080032663478785F68616C5F7263632E63001F
:105118002E2E2F447269766572732F53544D333295
:10512800463478785F48414C5F4472697665722FDF
:105138005372632F73746D3332663478785F6861A5
:105148006C5F7263635F65782E6300002E2E2F44B8
:105158007269766572732F53544D333246347878BA
:105168005F48414C5F4472697665722F5372632FB2
:1051780073746D3332663478785F68616C5F73700E
:10518800692E6300434443002E2E2F5372632F6908
:1051980032632E63000000002E2E2F5372632F6996
:1051A80032732E63000000002E2E2F5372632F6D72
:1051B80061696E2E630000002E2E2F5372632F73C9
:1051C80070692E63000000002E2E2F5372632F7516
:0C51D8007362685F636F6E662E630000F8
:0851E40024B0FF7F0100000070
:0451EC00BD010008F9
:0451F0009901000819
:1051F40001000000100000008C51000802000000B3
:10520400DB35000873350008513500083F380008C5
:10521400193500080000000001000000040000002F
:1052240000800040002000100024F4004000002012
:10523400000000000000000000000000000000006A
:10524400000000000000000000000000000000005A
:10525400000000000000000000000000000000004A
:10526400000000000000000000000000000000003A
:10527400000000000000000000000000000000002A
:10528400000000000000000000000000000000001A
:0400000508004D455D
:00000001FF
